{"contracts/PollContract.sol":{"PollContract":{"abi":[{"inputs":[{"internalType":"address","name":"_tokenContract","type":"address"}],"stateMutability":"nonpayable","type":"constructor"},{"inputs":[],"name":"AccessControlBadConfirmation","type":"error"},{"inputs":[{"internalType":"address","name":"account","type":"address"},{"internalType":"bytes32","name":"neededRole","type":"bytes32"}],"name":"AccessControlUnauthorizedAccount","type":"error"},{"anonymous":false,"inputs":[{"indexed":false,"internalType":"uint256","name":"id","type":"uint256"}],"name":"PollActivated","type":"event"},{"anonymous":false,"inputs":[{"indexed":false,"internalType":"uint256","name":"id","type":"uint256"}],"name":"PollClosed","type":"event"},{"anonymous":false,"inputs":[{"indexed":false,"internalType":"uint256","name":"id","type":"uint256"},{"indexed":false,"internalType":"string","name":"question","type":"string"}],"name":"PollCreated","type":"event"},{"anonymous":false,"inputs":[{"indexed":true,"internalType":"bytes32","name":"role","type":"bytes32"},{"indexed":true,"internalType":"bytes32","name":"previousAdminRole","type":"bytes32"},{"indexed":true,"internalType":"bytes32","name":"newAdminRole","type":"bytes32"}],"name":"RoleAdminChanged","type":"event"},{"anonymous":false,"inputs":[{"indexed":true,"internalType":"bytes32","name":"role","type":"bytes32"},{"indexed":true,"internalType":"address","name":"account","type":"address"},{"indexed":true,"internalType":"address","name":"sender","type":"address"}],"name":"RoleGranted","type":"event"},{"anonymous":false,"inputs":[{"indexed":true,"internalType":"bytes32","name":"role","type":"bytes32"},{"indexed":true,"internalType":"address","name":"account","type":"address"},{"indexed":true,"internalType":"address","name":"sender","type":"address"}],"name":"RoleRevoked","type":"event"},{"anonymous":false,"inputs":[{"indexed":false,"internalType":"address","name":"voter","type":"address"},{"indexed":false,"internalType":"uint256","name":"pollId","type":"uint256"},{"indexed":false,"internalType":"uint256","name":"option","type":"uint256"}],"name":"Voted","type":"event"},{"inputs":[],"name":"DEFAULT_ADMIN_ROLE","outputs":[{"internalType":"bytes32","name":"","type":"bytes32"}],"stateMutability":"view","type":"function"},{"inputs":[],"name":"POLL_MANAGER_ROLE","outputs":[{"internalType":"bytes32","name":"","type":"bytes32"}],"stateMutability":"view","type":"function"},{"inputs":[{"internalType":"uint256","name":"pollId","type":"uint256"}],"name":"activatePoll","outputs":[],"stateMutability":"nonpayable","type":"function"},{"inputs":[{"internalType":"uint256","name":"pollId","type":"uint256"}],"name":"closePoll","outputs":[],"stateMutability":"nonpayable","type":"function"},{"inputs":[{"internalType":"string","name":"question","type":"string"},{"internalType":"string[]","name":"options","type":"string[]"}],"name":"createPoll","outputs":[],"stateMutability":"nonpayable","type":"function"},{"inputs":[{"internalType":"bytes32","name":"role","type":"bytes32"}],"name":"getRoleAdmin","outputs":[{"internalType":"bytes32","name":"","type":"bytes32"}],"stateMutability":"view","type":"function"},{"inputs":[{"internalType":"bytes32","name":"role","type":"bytes32"},{"internalType":"address","name":"account","type":"address"}],"name":"grantRole","outputs":[],"stateMutability":"nonpayable","type":"function"},{"inputs":[{"internalType":"bytes32","name":"role","type":"bytes32"},{"internalType":"address","name":"account","type":"address"}],"name":"hasRole","outputs":[{"internalType":"bool","name":"","type":"bool"}],"stateMutability":"view","type":"function"},{"inputs":[{"internalType":"uint256","name":"","type":"uint256"}],"name":"polls","outputs":[{"internalType":"uint256","name":"id","type":"uint256"},{"internalType":"string","name":"question","type":"string"},{"internalType":"bool","name":"isActive","type":"bool"}],"stateMutability":"view","type":"function"},{"inputs":[{"internalType":"bytes32","name":"role","type":"bytes32"},{"internalType":"address","name":"callerConfirmation","type":"address"}],"name":"renounceRole","outputs":[],"stateMutability":"nonpayable","type":"function"},{"inputs":[{"internalType":"bytes32","name":"role","type":"bytes32"},{"internalType":"address","name":"account","type":"address"}],"name":"revokeRole","outputs":[],"stateMutability":"nonpayable","type":"function"},{"inputs":[{"internalType":"bytes4","name":"interfaceId","type":"bytes4"}],"name":"supportsInterface","outputs":[{"internalType":"bool","name":"","type":"bool"}],"stateMutability":"view","type":"function"},{"inputs":[],"name":"tokenContract","outputs":[{"internalType":"contract ITokenContract","name":"","type":"address"}],"stateMutability":"view","type":"function"},{"inputs":[{"internalType":"uint256","name":"pollId","type":"uint256"},{"internalType":"uint256","name":"option","type":"uint256"}],"name":"vote","outputs":[],"stateMutability":"nonpayable","type":"function"}],"evm":{"bytecode":{"linkReferences":{},"object":"60806040523480156200001157600080fd5b5060405162001e8a38038062001e8a833981810160405281019062000037919062000274565b80600260006101000a81548173ffffffffffffffffffffffffffffffffffffffff021916908373ffffffffffffffffffffffffffffffffffffffff1602179055506200008d6000801b336200009560201b60201c565b5050620002a6565b6000620000a983836200019860201b60201c565b6200018d57600160008085815260200190815260200160002060000160008473ffffffffffffffffffffffffffffffffffffffff1673ffffffffffffffffffffffffffffffffffffffff16815260200190815260200160002060006101000a81548160ff021916908315150217905550620001296200020260201b60201c565b73ffffffffffffffffffffffffffffffffffffffff168273ffffffffffffffffffffffffffffffffffffffff16847f2f8788117e7eff1d82e926ec794901d17c78024a50270940304540a733656f0d60405160405180910390a46001905062000192565b600090505b92915050565b600080600084815260200190815260200160002060000160008373ffffffffffffffffffffffffffffffffffffffff1673ffffffffffffffffffffffffffffffffffffffff16815260200190815260200160002060009054906101000a900460ff16905092915050565b600033905090565b600080fd5b600073ffffffffffffffffffffffffffffffffffffffff82169050919050565b60006200023c826200020f565b9050919050565b6200024e816200022f565b81146200025a57600080fd5b50565b6000815190506200026e8162000243565b92915050565b6000602082840312156200028d576200028c6200020a565b5b60006200029d848285016200025d565b91505092915050565b611bd480620002b66000396000f3fe608060405234801561001057600080fd5b50600436106100ea5760003560e01c80639534e6371161008c578063b384abef11610066578063b384abef1461025d578063ce3dbda114610279578063d547741f14610297578063ebb96896146102b3576100ea565b80639534e637146101f1578063a217fddf1461020d578063ac2f00741461022b576100ea565b806336568abe116100c857806336568abe1461016b57806355a373d6146101875780637e3d71c3146101a557806391d14854146101c1576100ea565b806301ffc9a7146100ef578063248a9ca31461011f5780632f2ff15d1461014f575b600080fd5b61010960048036038101906101049190610f73565b6102cf565b6040516101169190610fbb565b60405180910390f35b6101396004803603810190610134919061100c565b610349565b6040516101469190611048565b60405180910390f35b610169600480360381019061016491906110c1565b610368565b005b610185600480360381019061018091906110c1565b61038a565b005b61018f610405565b60405161019c9190611160565b60405180910390f35b6101bf60048036038101906101ba91906113a7565b61042b565b005b6101db60048036038101906101d691906110c1565b61051c565b6040516101e89190610fbb565b60405180910390f35b61020b60048036038101906102069190611455565b610586565b005b610215610670565b6040516102229190611048565b60405180910390f35b61024560048036038101906102409190611455565b610677565b60405161025493929190611510565b60405180910390f35b6102776004803603810190610272919061154e565b610746565b005b610281610a44565b60405161028e9190611048565b60405180910390f35b6102b160048036038101906102ac91906110c1565b610a68565b005b6102cd60048036038101906102c89190611455565b610a8a565b005b60007f7965db0b000000000000000000000000000000000000000000000000000000007bffffffffffffffffffffffffffffffffffffffffffffffffffffffff1916827bffffffffffffffffffffffffffffffffffffffffffffffffffffffff19161480610342575061034182610b73565b5b9050919050565b6000806000838152602001908152602001600020600101549050919050565b61037182610349565b61037a81610bdd565b6103848383610bf1565b50505050565b610392610ce2565b73ffffffffffffffffffffffffffffffffffffffff168173ffffffffffffffffffffffffffffffffffffffff16146103f6576040517f6697b23200000000000000000000000000000000000000000000000000000000815260040160405180910390fd5b6104008282610cea565b505050565b600260009054906101000a900473ffffffffffffffffffffffffffffffffffffffff1681565b7ff7d93cb9f09c9f4c8548d99cf7a35b0bcfa92f8500317727364e2b555e9fb99861045581610bdd565b60006001808160018154018082558091505003906000526020600020906006020190506001808054905061048991906115bd565b8160000181905550838160010190816104a291906117f3565b50828160020190805190602001906104bb929190610e2d565b5060008160030160006101000a81548160ff0219169083151502179055507f65d5ac2bf1bca69566bef1affdfca5bb37b9577fc0b3af4c7c4638225e67b39c81600001548560405161050e9291906118c5565b60405180910390a150505050565b600080600084815260200190815260200160002060000160008373ffffffffffffffffffffffffffffffffffffffff1673ffffffffffffffffffffffffffffffffffffffff16815260200190815260200160002060009054906101000a900460ff16905092915050565b7ff7d93cb9f09c9f4c8548d99cf7a35b0bcfa92f8500317727364e2b555e9fb9986105b081610bdd565b60018054905082106105f7576040517f08c379a00000000000000000000000000000000000000000000000000000000081526004016105ee90611941565b60405180910390fd5b60006001838154811061060d5761060c611961565b5b906000526020600020906006020160030160006101000a81548160ff0219169083151502179055507f703c67c157a1afb7d386ce5212ee88bf0a690bca998060e9595ebdfd747100ce826040516106649190611990565b60405180910390a15050565b6000801b81565b6001818154811061068757600080fd5b90600052602060002090600602016000915090508060000154908060010180546106b090611620565b80601f01602080910402602001604051908101604052809291908181526020018280546106dc90611620565b80156107295780601f106106fe57610100808354040283529160200191610729565b820191906000526020600020905b81548152906001019060200180831161070c57829003601f168201915b5050505050908060030160009054906101000a900460ff16905083565b600180549050821061078d576040517f08c379a000000000000000000000000000000000000000000000000000000000815260040161078490611941565b60405180910390fd5b600182815481106107a1576107a0611961565b5b906000526020600020906006020160030160009054906101000a900460ff166107ff576040517f08c379a00000000000000000000000000000000000000000000000000000000081526004016107f6906119f7565b60405180910390fd5b6001828154811061081357610812611961565b5b906000526020600020906006020160040160003373ffffffffffffffffffffffffffffffffffffffff1673ffffffffffffffffffffffffffffffffffffffff16815260200190815260200160002060009054906101000a900460ff16156108af576040517f08c379a00000000000000000000000000000000000000000000000000000000081526004016108a690611a63565b60405180910390fd5b600182815481106108c3576108c2611961565b5b9060005260206000209060060201600501600082815260200190815260200160002060008154809291906108f690611a83565b919050555060018083815481106109105761090f611961565b5b906000526020600020906006020160040160003373ffffffffffffffffffffffffffffffffffffffff1673ffffffffffffffffffffffffffffffffffffffff16815260200190815260200160002060006101000a81548160ff0219169083151502179055507fea66f58e474bc09f580000e81f31b334d171db387d0c6098ba47bd897741679b3383836040516109a893929190611ada565b60405180910390a1600260009054906101000a900473ffffffffffffffffffffffffffffffffffffffff1673ffffffffffffffffffffffffffffffffffffffff166340c10f193360016040518363ffffffff1660e01b8152600401610a0e929190611b4c565b600060405180830381600087803b158015610a2857600080fd5b505af1158015610a3c573d6000803e3d6000fd5b505050505050565b7ff7d93cb9f09c9f4c8548d99cf7a35b0bcfa92f8500317727364e2b555e9fb99881565b610a7182610349565b610a7a81610bdd565b610a848383610cea565b50505050565b7ff7d93cb9f09c9f4c8548d99cf7a35b0bcfa92f8500317727364e2b555e9fb998610ab481610bdd565b6001805490508210610afb576040517f08c379a0000000000000000000000000000000000000000000000000000000008152600401610af290611941565b60405180910390fd5b6001808381548110610b1057610b0f611961565b5b906000526020600020906006020160030160006101000a81548160ff0219169083151502179055507f4d863a7bb9fa1842bb9e4910f424611e539d2ba27a89dbd18d89ba8eb7a494c282604051610b679190611990565b60405180910390a15050565b60007f01ffc9a7000000000000000000000000000000000000000000000000000000007bffffffffffffffffffffffffffffffffffffffffffffffffffffffff1916827bffffffffffffffffffffffffffffffffffffffffffffffffffffffff1916149050919050565b610bee81610be9610ce2565b610ddc565b50565b6000610bfd838361051c565b610cd757600160008085815260200190815260200160002060000160008473ffffffffffffffffffffffffffffffffffffffff1673ffffffffffffffffffffffffffffffffffffffff16815260200190815260200160002060006101000a81548160ff021916908315150217905550610c74610ce2565b73ffffffffffffffffffffffffffffffffffffffff168273ffffffffffffffffffffffffffffffffffffffff16847f2f8788117e7eff1d82e926ec794901d17c78024a50270940304540a733656f0d60405160405180910390a460019050610cdc565b600090505b92915050565b600033905090565b6000610cf6838361051c565b15610dd157600080600085815260200190815260200160002060000160008473ffffffffffffffffffffffffffffffffffffffff1673ffffffffffffffffffffffffffffffffffffffff16815260200190815260200160002060006101000a81548160ff021916908315150217905550610d6e610ce2565b73ffffffffffffffffffffffffffffffffffffffff168273ffffffffffffffffffffffffffffffffffffffff16847ff6391f5c32d9c69d2a47ea670b442974b53935d1edc7fd64eb21e047a839171b60405160405180910390a460019050610dd6565b600090505b92915050565b610de6828261051c565b610e295780826040517fe2517d3f000000000000000000000000000000000000000000000000000000008152600401610e20929190611b75565b60405180910390fd5b5050565b828054828255906000526020600020908101928215610e75579160200282015b82811115610e74578251829081610e6491906117f3565b5091602001919060010190610e4d565b5b509050610e829190610e86565b5090565b5b80821115610ea65760008181610e9d9190610eaa565b50600101610e87565b5090565b508054610eb690611620565b6000825580601f10610ec85750610ee7565b601f016020900490600052602060002090810190610ee69190610eea565b5b50565b5b80821115610f03576000816000905550600101610eeb565b5090565b6000604051905090565b600080fd5b600080fd5b60007fffffffff0000000000000000000000000000000000000000000000000000000082169050919050565b610f5081610f1b565b8114610f5b57600080fd5b50565b600081359050610f6d81610f47565b92915050565b600060208284031215610f8957610f88610f11565b5b6000610f9784828501610f5e565b91505092915050565b60008115159050919050565b610fb581610fa0565b82525050565b6000602082019050610fd06000830184610fac565b92915050565b6000819050919050565b610fe981610fd6565b8114610ff457600080fd5b50565b60008135905061100681610fe0565b92915050565b60006020828403121561102257611021610f11565b5b600061103084828501610ff7565b91505092915050565b61104281610fd6565b82525050565b600060208201905061105d6000830184611039565b92915050565b600073ffffffffffffffffffffffffffffffffffffffff82169050919050565b600061108e82611063565b9050919050565b61109e81611083565b81146110a957600080fd5b50565b6000813590506110bb81611095565b92915050565b600080604083850312156110d8576110d7610f11565b5b60006110e685828601610ff7565b92505060206110f7858286016110ac565b9150509250929050565b6000819050919050565b600061112661112161111c84611063565b611101565b611063565b9050919050565b60006111388261110b565b9050919050565b600061114a8261112d565b9050919050565b61115a8161113f565b82525050565b60006020820190506111756000830184611151565b92915050565b600080fd5b600080fd5b6000601f19601f8301169050919050565b7f4e487b7100000000000000000000000000000000000000000000000000000000600052604160045260246000fd5b6111ce82611185565b810181811067ffffffffffffffff821117156111ed576111ec611196565b5b80604052505050565b6000611200610f07565b905061120c82826111c5565b919050565b600067ffffffffffffffff82111561122c5761122b611196565b5b61123582611185565b9050602081019050919050565b82818337600083830152505050565b600061126461125f84611211565b6111f6565b9050828152602081018484840111156112805761127f611180565b5b61128b848285611242565b509392505050565b600082601f8301126112a8576112a761117b565b5b81356112b8848260208601611251565b91505092915050565b600067ffffffffffffffff8211156112dc576112db611196565b5b602082029050602081019050919050565b600080fd5b6000611305611300846112c1565b6111f6565b90508083825260208201905060208402830185811115611328576113276112ed565b5b835b8181101561136f57803567ffffffffffffffff81111561134d5761134c61117b565b5b80860161135a8982611293565b8552602085019450505060208101905061132a565b5050509392505050565b600082601f83011261138e5761138d61117b565b5b813561139e8482602086016112f2565b91505092915050565b600080604083850312156113be576113bd610f11565b5b600083013567ffffffffffffffff8111156113dc576113db610f16565b5b6113e885828601611293565b925050602083013567ffffffffffffffff81111561140957611408610f16565b5b61141585828601611379565b9150509250929050565b6000819050919050565b6114328161141f565b811461143d57600080fd5b50565b60008135905061144f81611429565b92915050565b60006020828403121561146b5761146a610f11565b5b600061147984828501611440565b91505092915050565b61148b8161141f565b82525050565b600081519050919050565b600082825260208201905092915050565b60005b838110156114cb5780820151818401526020810190506114b0565b60008484015250505050565b60006114e282611491565b6114ec818561149c565b93506114fc8185602086016114ad565b61150581611185565b840191505092915050565b60006060820190506115256000830186611482565b818103602083015261153781856114d7565b90506115466040830184610fac565b949350505050565b6000806040838503121561156557611564610f11565b5b600061157385828601611440565b925050602061158485828601611440565b9150509250929050565b7f4e487b7100000000000000000000000000000000000000000000000000000000600052601160045260246000fd5b60006115c88261141f565b91506115d38361141f565b92508282039050818111156115eb576115ea61158e565b5b92915050565b7f4e487b7100000000000000000000000000000000000000000000000000000000600052602260045260246000fd5b6000600282049050600182168061163857607f821691505b60208210810361164b5761164a6115f1565b5b50919050565b60008190508160005260206000209050919050565b60006020601f8301049050919050565b600082821b905092915050565b6000600883026116b37fffffffffffffffffffffffffffffffffffffffffffffffffffffffffffffffff82611676565b6116bd8683611676565b95508019841693508086168417925050509392505050565b60006116f06116eb6116e68461141f565b611101565b61141f565b9050919050565b6000819050919050565b61170a836116d5565b61171e611716826116f7565b848454611683565b825550505050565b600090565b611733611726565b61173e818484611701565b505050565b5b818110156117625761175760008261172b565b600181019050611744565b5050565b601f8211156117a75761177881611651565b61178184611666565b81016020851015611790578190505b6117a461179c85611666565b830182611743565b50505b505050565b600082821c905092915050565b60006117ca600019846008026117ac565b1980831691505092915050565b60006117e383836117b9565b9150826002028217905092915050565b6117fc82611491565b67ffffffffffffffff81111561181557611814611196565b5b61181f8254611620565b61182a828285611766565b600060209050601f83116001811461185d576000841561184b578287015190505b61185585826117d7565b8655506118bd565b601f19841661186b86611651565b60005b828110156118935784890151825560018201915060208501945060208101905061186e565b868310156118b057848901516118ac601f8916826117b9565b8355505b6001600288020188555050505b505050505050565b60006040820190506118da6000830185611482565b81810360208301526118ec81846114d7565b90509392505050565b7f506f6c6c20646f6573206e6f742065786973742e000000000000000000000000600082015250565b600061192b60148361149c565b9150611936826118f5565b602082019050919050565b6000602082019050818103600083015261195a8161191e565b9050919050565b7f4e487b7100000000000000000000000000000000000000000000000000000000600052603260045260246000fd5b60006020820190506119a56000830184611482565b92915050565b7f506f6c6c206973206e6f74206163746976652e00000000000000000000000000600082015250565b60006119e160138361149c565b91506119ec826119ab565b602082019050919050565b60006020820190508181036000830152611a10816119d4565b9050919050565b7f416c726561647920766f7465642e000000000000000000000000000000000000600082015250565b6000611a4d600e8361149c565b9150611a5882611a17565b602082019050919050565b60006020820190508181036000830152611a7c81611a40565b9050919050565b6000611a8e8261141f565b91507fffffffffffffffffffffffffffffffffffffffffffffffffffffffffffffffff8203611ac057611abf61158e565b5b600182019050919050565b611ad481611083565b82525050565b6000606082019050611aef6000830186611acb565b611afc6020830185611482565b611b096040830184611482565b949350505050565b6000819050919050565b6000611b36611b31611b2c84611b11565b611101565b61141f565b9050919050565b611b4681611b1b565b82525050565b6000604082019050611b616000830185611acb565b611b6e6020830184611b3d565b9392505050565b6000604082019050611b8a6000830185611acb565b611b976020830184611039565b939250505056fea2646970667358221220ad24044a35bd0abb48bcaf60984f975008df32c6b8c7cb4e16ac0260189d136564736f6c63430008140033","opcodes":"PUSH1 0x80 PUSH1 0x40 MSTORE CALLVALUE DUP1 ISZERO PUSH3 0x11 JUMPI PUSH1 0x0 DUP1 REVERT JUMPDEST POP PUSH1 0x40 MLOAD PUSH3 0x1E8A CODESIZE SUB DUP1 PUSH3 0x1E8A DUP4 CODECOPY DUP2 DUP2 ADD PUSH1 0x40 MSTORE DUP2 ADD SWAP1 PUSH3 0x37 SWAP2 SWAP1 PUSH3 0x274 JUMP JUMPDEST DUP1 PUSH1 0x2 PUSH1 0x0 PUSH2 0x100 EXP DUP2 SLOAD DUP2 PUSH20 0xFFFFFFFFFFFFFFFFFFFFFFFFFFFFFFFFFFFFFFFF MUL NOT AND SWAP1 DUP4 PUSH20 0xFFFFFFFFFFFFFFFFFFFFFFFFFFFFFFFFFFFFFFFF AND MUL OR SWAP1 SSTORE POP PUSH3 0x8D PUSH1 0x0 DUP1 SHL CALLER PUSH3 0x95 PUSH1 0x20 SHL PUSH1 0x20 SHR JUMP JUMPDEST POP POP PUSH3 0x2A6 JUMP JUMPDEST PUSH1 0x0 PUSH3 0xA9 DUP4 DUP4 PUSH3 0x198 PUSH1 0x20 SHL PUSH1 0x20 SHR JUMP JUMPDEST PUSH3 0x18D JUMPI PUSH1 0x1 PUSH1 0x0 DUP1 DUP6 DUP2 MSTORE PUSH1 0x20 ADD SWAP1 DUP2 MSTORE PUSH1 0x20 ADD PUSH1 0x0 KECCAK256 PUSH1 0x0 ADD PUSH1 0x0 DUP5 PUSH20 0xFFFFFFFFFFFFFFFFFFFFFFFFFFFFFFFFFFFFFFFF AND PUSH20 0xFFFFFFFFFFFFFFFFFFFFFFFFFFFFFFFFFFFFFFFF AND DUP2 MSTORE PUSH1 0x20 ADD SWAP1 DUP2 MSTORE PUSH1 0x20 ADD PUSH1 0x0 KECCAK256 PUSH1 0x0 PUSH2 0x100 EXP DUP2 SLOAD DUP2 PUSH1 0xFF MUL NOT AND SWAP1 DUP4 ISZERO ISZERO MUL OR SWAP1 SSTORE POP PUSH3 0x129 PUSH3 0x202 PUSH1 0x20 SHL PUSH1 0x20 SHR JUMP JUMPDEST PUSH20 0xFFFFFFFFFFFFFFFFFFFFFFFFFFFFFFFFFFFFFFFF AND DUP3 PUSH20 0xFFFFFFFFFFFFFFFFFFFFFFFFFFFFFFFFFFFFFFFF AND DUP5 PUSH32 0x2F8788117E7EFF1D82E926EC794901D17C78024A50270940304540A733656F0D PUSH1 0x40 MLOAD PUSH1 0x40 MLOAD DUP1 SWAP2 SUB SWAP1 LOG4 PUSH1 0x1 SWAP1 POP PUSH3 0x192 JUMP JUMPDEST PUSH1 0x0 SWAP1 POP JUMPDEST SWAP3 SWAP2 POP POP JUMP JUMPDEST PUSH1 0x0 DUP1 PUSH1 0x0 DUP5 DUP2 MSTORE PUSH1 0x20 ADD SWAP1 DUP2 MSTORE PUSH1 0x20 ADD PUSH1 0x0 KECCAK256 PUSH1 0x0 ADD PUSH1 0x0 DUP4 PUSH20 0xFFFFFFFFFFFFFFFFFFFFFFFFFFFFFFFFFFFFFFFF AND PUSH20 0xFFFFFFFFFFFFFFFFFFFFFFFFFFFFFFFFFFFFFFFF AND DUP2 MSTORE PUSH1 0x20 ADD SWAP1 DUP2 MSTORE PUSH1 0x20 ADD PUSH1 0x0 KECCAK256 PUSH1 0x0 SWAP1 SLOAD SWAP1 PUSH2 0x100 EXP SWAP1 DIV PUSH1 0xFF AND SWAP1 POP SWAP3 SWAP2 POP POP JUMP JUMPDEST PUSH1 0x0 CALLER SWAP1 POP SWAP1 JUMP JUMPDEST PUSH1 0x0 DUP1 REVERT JUMPDEST PUSH1 0x0 PUSH20 0xFFFFFFFFFFFFFFFFFFFFFFFFFFFFFFFFFFFFFFFF DUP3 AND SWAP1 POP SWAP2 SWAP1 POP JUMP JUMPDEST PUSH1 0x0 PUSH3 0x23C DUP3 PUSH3 0x20F JUMP JUMPDEST SWAP1 POP SWAP2 SWAP1 POP JUMP JUMPDEST PUSH3 0x24E DUP2 PUSH3 0x22F JUMP JUMPDEST DUP2 EQ PUSH3 0x25A JUMPI PUSH1 0x0 DUP1 REVERT JUMPDEST POP JUMP JUMPDEST PUSH1 0x0 DUP2 MLOAD SWAP1 POP PUSH3 0x26E DUP2 PUSH3 0x243 JUMP JUMPDEST SWAP3 SWAP2 POP POP JUMP JUMPDEST PUSH1 0x0 PUSH1 0x20 DUP3 DUP5 SUB SLT ISZERO PUSH3 0x28D JUMPI PUSH3 0x28C PUSH3 0x20A JUMP JUMPDEST JUMPDEST PUSH1 0x0 PUSH3 0x29D DUP5 DUP3 DUP6 ADD PUSH3 0x25D JUMP JUMPDEST SWAP2 POP POP SWAP3 SWAP2 POP POP JUMP JUMPDEST PUSH2 0x1BD4 DUP1 PUSH3 0x2B6 PUSH1 0x0 CODECOPY PUSH1 0x0 RETURN INVALID PUSH1 0x80 PUSH1 0x40 MSTORE CALLVALUE DUP1 ISZERO PUSH2 0x10 JUMPI PUSH1 0x0 DUP1 REVERT JUMPDEST POP PUSH1 0x4 CALLDATASIZE LT PUSH2 0xEA JUMPI PUSH1 0x0 CALLDATALOAD PUSH1 0xE0 SHR DUP1 PUSH4 0x9534E637 GT PUSH2 0x8C JUMPI DUP1 PUSH4 0xB384ABEF GT PUSH2 0x66 JUMPI DUP1 PUSH4 0xB384ABEF EQ PUSH2 0x25D JUMPI DUP1 PUSH4 0xCE3DBDA1 EQ PUSH2 0x279 JUMPI DUP1 PUSH4 0xD547741F EQ PUSH2 0x297 JUMPI DUP1 PUSH4 0xEBB96896 EQ PUSH2 0x2B3 JUMPI PUSH2 0xEA JUMP JUMPDEST DUP1 PUSH4 0x9534E637 EQ PUSH2 0x1F1 JUMPI DUP1 PUSH4 0xA217FDDF EQ PUSH2 0x20D JUMPI DUP1 PUSH4 0xAC2F0074 EQ PUSH2 0x22B JUMPI PUSH2 0xEA JUMP JUMPDEST DUP1 PUSH4 0x36568ABE GT PUSH2 0xC8 JUMPI DUP1 PUSH4 0x36568ABE EQ PUSH2 0x16B JUMPI DUP1 PUSH4 0x55A373D6 EQ PUSH2 0x187 JUMPI DUP1 PUSH4 0x7E3D71C3 EQ PUSH2 0x1A5 JUMPI DUP1 PUSH4 0x91D14854 EQ PUSH2 0x1C1 JUMPI PUSH2 0xEA JUMP JUMPDEST DUP1 PUSH4 0x1FFC9A7 EQ PUSH2 0xEF JUMPI DUP1 PUSH4 0x248A9CA3 EQ PUSH2 0x11F JUMPI DUP1 PUSH4 0x2F2FF15D EQ PUSH2 0x14F JUMPI JUMPDEST PUSH1 0x0 DUP1 REVERT JUMPDEST PUSH2 0x109 PUSH1 0x4 DUP1 CALLDATASIZE SUB DUP2 ADD SWAP1 PUSH2 0x104 SWAP2 SWAP1 PUSH2 0xF73 JUMP JUMPDEST PUSH2 0x2CF JUMP JUMPDEST PUSH1 0x40 MLOAD PUSH2 0x116 SWAP2 SWAP1 PUSH2 0xFBB JUMP JUMPDEST PUSH1 0x40 MLOAD DUP1 SWAP2 SUB SWAP1 RETURN JUMPDEST PUSH2 0x139 PUSH1 0x4 DUP1 CALLDATASIZE SUB DUP2 ADD SWAP1 PUSH2 0x134 SWAP2 SWAP1 PUSH2 0x100C JUMP JUMPDEST PUSH2 0x349 JUMP JUMPDEST PUSH1 0x40 MLOAD PUSH2 0x146 SWAP2 SWAP1 PUSH2 0x1048 JUMP JUMPDEST PUSH1 0x40 MLOAD DUP1 SWAP2 SUB SWAP1 RETURN JUMPDEST PUSH2 0x169 PUSH1 0x4 DUP1 CALLDATASIZE SUB DUP2 ADD SWAP1 PUSH2 0x164 SWAP2 SWAP1 PUSH2 0x10C1 JUMP JUMPDEST PUSH2 0x368 JUMP JUMPDEST STOP JUMPDEST PUSH2 0x185 PUSH1 0x4 DUP1 CALLDATASIZE SUB DUP2 ADD SWAP1 PUSH2 0x180 SWAP2 SWAP1 PUSH2 0x10C1 JUMP JUMPDEST PUSH2 0x38A JUMP JUMPDEST STOP JUMPDEST PUSH2 0x18F PUSH2 0x405 JUMP JUMPDEST PUSH1 0x40 MLOAD PUSH2 0x19C SWAP2 SWAP1 PUSH2 0x1160 JUMP JUMPDEST PUSH1 0x40 MLOAD DUP1 SWAP2 SUB SWAP1 RETURN JUMPDEST PUSH2 0x1BF PUSH1 0x4 DUP1 CALLDATASIZE SUB DUP2 ADD SWAP1 PUSH2 0x1BA SWAP2 SWAP1 PUSH2 0x13A7 JUMP JUMPDEST PUSH2 0x42B JUMP JUMPDEST STOP JUMPDEST PUSH2 0x1DB PUSH1 0x4 DUP1 CALLDATASIZE SUB DUP2 ADD SWAP1 PUSH2 0x1D6 SWAP2 SWAP1 PUSH2 0x10C1 JUMP JUMPDEST PUSH2 0x51C JUMP JUMPDEST PUSH1 0x40 MLOAD PUSH2 0x1E8 SWAP2 SWAP1 PUSH2 0xFBB JUMP JUMPDEST PUSH1 0x40 MLOAD DUP1 SWAP2 SUB SWAP1 RETURN JUMPDEST PUSH2 0x20B PUSH1 0x4 DUP1 CALLDATASIZE SUB DUP2 ADD SWAP1 PUSH2 0x206 SWAP2 SWAP1 PUSH2 0x1455 JUMP JUMPDEST PUSH2 0x586 JUMP JUMPDEST STOP JUMPDEST PUSH2 0x215 PUSH2 0x670 JUMP JUMPDEST PUSH1 0x40 MLOAD PUSH2 0x222 SWAP2 SWAP1 PUSH2 0x1048 JUMP JUMPDEST PUSH1 0x40 MLOAD DUP1 SWAP2 SUB SWAP1 RETURN JUMPDEST PUSH2 0x245 PUSH1 0x4 DUP1 CALLDATASIZE SUB DUP2 ADD SWAP1 PUSH2 0x240 SWAP2 SWAP1 PUSH2 0x1455 JUMP JUMPDEST PUSH2 0x677 JUMP JUMPDEST PUSH1 0x40 MLOAD PUSH2 0x254 SWAP4 SWAP3 SWAP2 SWAP1 PUSH2 0x1510 JUMP JUMPDEST PUSH1 0x40 MLOAD DUP1 SWAP2 SUB SWAP1 RETURN JUMPDEST PUSH2 0x277 PUSH1 0x4 DUP1 CALLDATASIZE SUB DUP2 ADD SWAP1 PUSH2 0x272 SWAP2 SWAP1 PUSH2 0x154E JUMP JUMPDEST PUSH2 0x746 JUMP JUMPDEST STOP JUMPDEST PUSH2 0x281 PUSH2 0xA44 JUMP JUMPDEST PUSH1 0x40 MLOAD PUSH2 0x28E SWAP2 SWAP1 PUSH2 0x1048 JUMP JUMPDEST PUSH1 0x40 MLOAD DUP1 SWAP2 SUB SWAP1 RETURN JUMPDEST PUSH2 0x2B1 PUSH1 0x4 DUP1 CALLDATASIZE SUB DUP2 ADD SWAP1 PUSH2 0x2AC SWAP2 SWAP1 PUSH2 0x10C1 JUMP JUMPDEST PUSH2 0xA68 JUMP JUMPDEST STOP JUMPDEST PUSH2 0x2CD PUSH1 0x4 DUP1 CALLDATASIZE SUB DUP2 ADD SWAP1 PUSH2 0x2C8 SWAP2 SWAP1 PUSH2 0x1455 JUMP JUMPDEST PUSH2 0xA8A JUMP JUMPDEST STOP JUMPDEST PUSH1 0x0 PUSH32 0x7965DB0B00000000000000000000000000000000000000000000000000000000 PUSH28 0xFFFFFFFFFFFFFFFFFFFFFFFFFFFFFFFFFFFFFFFFFFFFFFFFFFFFFFFF NOT AND DUP3 PUSH28 0xFFFFFFFFFFFFFFFFFFFFFFFFFFFFFFFFFFFFFFFFFFFFFFFFFFFFFFFF NOT AND EQ DUP1 PUSH2 0x342 JUMPI POP PUSH2 0x341 DUP3 PUSH2 0xB73 JUMP JUMPDEST JUMPDEST SWAP1 POP SWAP2 SWAP1 POP JUMP JUMPDEST PUSH1 0x0 DUP1 PUSH1 0x0 DUP4 DUP2 MSTORE PUSH1 0x20 ADD SWAP1 DUP2 MSTORE PUSH1 0x20 ADD PUSH1 0x0 KECCAK256 PUSH1 0x1 ADD SLOAD SWAP1 POP SWAP2 SWAP1 POP JUMP JUMPDEST PUSH2 0x371 DUP3 PUSH2 0x349 JUMP JUMPDEST PUSH2 0x37A DUP2 PUSH2 0xBDD JUMP JUMPDEST PUSH2 0x384 DUP4 DUP4 PUSH2 0xBF1 JUMP JUMPDEST POP POP POP POP JUMP JUMPDEST PUSH2 0x392 PUSH2 0xCE2 JUMP JUMPDEST PUSH20 0xFFFFFFFFFFFFFFFFFFFFFFFFFFFFFFFFFFFFFFFF AND DUP2 PUSH20 0xFFFFFFFFFFFFFFFFFFFFFFFFFFFFFFFFFFFFFFFF AND EQ PUSH2 0x3F6 JUMPI PUSH1 0x40 MLOAD PUSH32 0x6697B23200000000000000000000000000000000000000000000000000000000 DUP2 MSTORE PUSH1 0x4 ADD PUSH1 0x40 MLOAD DUP1 SWAP2 SUB SWAP1 REVERT JUMPDEST PUSH2 0x400 DUP3 DUP3 PUSH2 0xCEA JUMP JUMPDEST POP POP POP JUMP JUMPDEST PUSH1 0x2 PUSH1 0x0 SWAP1 SLOAD SWAP1 PUSH2 0x100 EXP SWAP1 DIV PUSH20 0xFFFFFFFFFFFFFFFFFFFFFFFFFFFFFFFFFFFFFFFF AND DUP2 JUMP JUMPDEST PUSH32 0xF7D93CB9F09C9F4C8548D99CF7A35B0BCFA92F8500317727364E2B555E9FB998 PUSH2 0x455 DUP2 PUSH2 0xBDD JUMP JUMPDEST PUSH1 0x0 PUSH1 0x1 DUP1 DUP2 PUSH1 0x1 DUP2 SLOAD ADD DUP1 DUP3 SSTORE DUP1 SWAP2 POP POP SUB SWAP1 PUSH1 0x0 MSTORE PUSH1 0x20 PUSH1 0x0 KECCAK256 SWAP1 PUSH1 0x6 MUL ADD SWAP1 POP PUSH1 0x1 DUP1 DUP1 SLOAD SWAP1 POP PUSH2 0x489 SWAP2 SWAP1 PUSH2 0x15BD JUMP JUMPDEST DUP2 PUSH1 0x0 ADD DUP2 SWAP1 SSTORE POP DUP4 DUP2 PUSH1 0x1 ADD SWAP1 DUP2 PUSH2 0x4A2 SWAP2 SWAP1 PUSH2 0x17F3 JUMP JUMPDEST POP DUP3 DUP2 PUSH1 0x2 ADD SWAP1 DUP1 MLOAD SWAP1 PUSH1 0x20 ADD SWAP1 PUSH2 0x4BB SWAP3 SWAP2 SWAP1 PUSH2 0xE2D JUMP JUMPDEST POP PUSH1 0x0 DUP2 PUSH1 0x3 ADD PUSH1 0x0 PUSH2 0x100 EXP DUP2 SLOAD DUP2 PUSH1 0xFF MUL NOT AND SWAP1 DUP4 ISZERO ISZERO MUL OR SWAP1 SSTORE POP PUSH32 0x65D5AC2BF1BCA69566BEF1AFFDFCA5BB37B9577FC0B3AF4C7C4638225E67B39C DUP2 PUSH1 0x0 ADD SLOAD DUP6 PUSH1 0x40 MLOAD PUSH2 0x50E SWAP3 SWAP2 SWAP1 PUSH2 0x18C5 JUMP JUMPDEST PUSH1 0x40 MLOAD DUP1 SWAP2 SUB SWAP1 LOG1 POP POP POP POP JUMP JUMPDEST PUSH1 0x0 DUP1 PUSH1 0x0 DUP5 DUP2 MSTORE PUSH1 0x20 ADD SWAP1 DUP2 MSTORE PUSH1 0x20 ADD PUSH1 0x0 KECCAK256 PUSH1 0x0 ADD PUSH1 0x0 DUP4 PUSH20 0xFFFFFFFFFFFFFFFFFFFFFFFFFFFFFFFFFFFFFFFF AND PUSH20 0xFFFFFFFFFFFFFFFFFFFFFFFFFFFFFFFFFFFFFFFF AND DUP2 MSTORE PUSH1 0x20 ADD SWAP1 DUP2 MSTORE PUSH1 0x20 ADD PUSH1 0x0 KECCAK256 PUSH1 0x0 SWAP1 SLOAD SWAP1 PUSH2 0x100 EXP SWAP1 DIV PUSH1 0xFF AND SWAP1 POP SWAP3 SWAP2 POP POP JUMP JUMPDEST PUSH32 0xF7D93CB9F09C9F4C8548D99CF7A35B0BCFA92F8500317727364E2B555E9FB998 PUSH2 0x5B0 DUP2 PUSH2 0xBDD JUMP JUMPDEST PUSH1 0x1 DUP1 SLOAD SWAP1 POP DUP3 LT PUSH2 0x5F7 JUMPI PUSH1 0x40 MLOAD PUSH32 0x8C379A000000000000000000000000000000000000000000000000000000000 DUP2 MSTORE PUSH1 0x4 ADD PUSH2 0x5EE SWAP1 PUSH2 0x1941 JUMP JUMPDEST PUSH1 0x40 MLOAD DUP1 SWAP2 SUB SWAP1 REVERT JUMPDEST PUSH1 0x0 PUSH1 0x1 DUP4 DUP2 SLOAD DUP2 LT PUSH2 0x60D JUMPI PUSH2 0x60C PUSH2 0x1961 JUMP JUMPDEST JUMPDEST SWAP1 PUSH1 0x0 MSTORE PUSH1 0x20 PUSH1 0x0 KECCAK256 SWAP1 PUSH1 0x6 MUL ADD PUSH1 0x3 ADD PUSH1 0x0 PUSH2 0x100 EXP DUP2 SLOAD DUP2 PUSH1 0xFF MUL NOT AND SWAP1 DUP4 ISZERO ISZERO MUL OR SWAP1 SSTORE POP PUSH32 0x703C67C157A1AFB7D386CE5212EE88BF0A690BCA998060E9595EBDFD747100CE DUP3 PUSH1 0x40 MLOAD PUSH2 0x664 SWAP2 SWAP1 PUSH2 0x1990 JUMP JUMPDEST PUSH1 0x40 MLOAD DUP1 SWAP2 SUB SWAP1 LOG1 POP POP JUMP JUMPDEST PUSH1 0x0 DUP1 SHL DUP2 JUMP JUMPDEST PUSH1 0x1 DUP2 DUP2 SLOAD DUP2 LT PUSH2 0x687 JUMPI PUSH1 0x0 DUP1 REVERT JUMPDEST SWAP1 PUSH1 0x0 MSTORE PUSH1 0x20 PUSH1 0x0 KECCAK256 SWAP1 PUSH1 0x6 MUL ADD PUSH1 0x0 SWAP2 POP SWAP1 POP DUP1 PUSH1 0x0 ADD SLOAD SWAP1 DUP1 PUSH1 0x1 ADD DUP1 SLOAD PUSH2 0x6B0 SWAP1 PUSH2 0x1620 JUMP JUMPDEST DUP1 PUSH1 0x1F ADD PUSH1 0x20 DUP1 SWAP2 DIV MUL PUSH1 0x20 ADD PUSH1 0x40 MLOAD SWAP1 DUP2 ADD PUSH1 0x40 MSTORE DUP1 SWAP3 SWAP2 SWAP1 DUP2 DUP2 MSTORE PUSH1 0x20 ADD DUP3 DUP1 SLOAD PUSH2 0x6DC SWAP1 PUSH2 0x1620 JUMP JUMPDEST DUP1 ISZERO PUSH2 0x729 JUMPI DUP1 PUSH1 0x1F LT PUSH2 0x6FE JUMPI PUSH2 0x100 DUP1 DUP4 SLOAD DIV MUL DUP4 MSTORE SWAP2 PUSH1 0x20 ADD SWAP2 PUSH2 0x729 JUMP JUMPDEST DUP3 ADD SWAP2 SWAP1 PUSH1 0x0 MSTORE PUSH1 0x20 PUSH1 0x0 KECCAK256 SWAP1 JUMPDEST DUP2 SLOAD DUP2 MSTORE SWAP1 PUSH1 0x1 ADD SWAP1 PUSH1 0x20 ADD DUP1 DUP4 GT PUSH2 0x70C JUMPI DUP3 SWAP1 SUB PUSH1 0x1F AND DUP3 ADD SWAP2 JUMPDEST POP POP POP POP POP SWAP1 DUP1 PUSH1 0x3 ADD PUSH1 0x0 SWAP1 SLOAD SWAP1 PUSH2 0x100 EXP SWAP1 DIV PUSH1 0xFF AND SWAP1 POP DUP4 JUMP JUMPDEST PUSH1 0x1 DUP1 SLOAD SWAP1 POP DUP3 LT PUSH2 0x78D JUMPI PUSH1 0x40 MLOAD PUSH32 0x8C379A000000000000000000000000000000000000000000000000000000000 DUP2 MSTORE PUSH1 0x4 ADD PUSH2 0x784 SWAP1 PUSH2 0x1941 JUMP JUMPDEST PUSH1 0x40 MLOAD DUP1 SWAP2 SUB SWAP1 REVERT JUMPDEST PUSH1 0x1 DUP3 DUP2 SLOAD DUP2 LT PUSH2 0x7A1 JUMPI PUSH2 0x7A0 PUSH2 0x1961 JUMP JUMPDEST JUMPDEST SWAP1 PUSH1 0x0 MSTORE PUSH1 0x20 PUSH1 0x0 KECCAK256 SWAP1 PUSH1 0x6 MUL ADD PUSH1 0x3 ADD PUSH1 0x0 SWAP1 SLOAD SWAP1 PUSH2 0x100 EXP SWAP1 DIV PUSH1 0xFF AND PUSH2 0x7FF JUMPI PUSH1 0x40 MLOAD PUSH32 0x8C379A000000000000000000000000000000000000000000000000000000000 DUP2 MSTORE PUSH1 0x4 ADD PUSH2 0x7F6 SWAP1 PUSH2 0x19F7 JUMP JUMPDEST PUSH1 0x40 MLOAD DUP1 SWAP2 SUB SWAP1 REVERT JUMPDEST PUSH1 0x1 DUP3 DUP2 SLOAD DUP2 LT PUSH2 0x813 JUMPI PUSH2 0x812 PUSH2 0x1961 JUMP JUMPDEST JUMPDEST SWAP1 PUSH1 0x0 MSTORE PUSH1 0x20 PUSH1 0x0 KECCAK256 SWAP1 PUSH1 0x6 MUL ADD PUSH1 0x4 ADD PUSH1 0x0 CALLER PUSH20 0xFFFFFFFFFFFFFFFFFFFFFFFFFFFFFFFFFFFFFFFF AND PUSH20 0xFFFFFFFFFFFFFFFFFFFFFFFFFFFFFFFFFFFFFFFF AND DUP2 MSTORE PUSH1 0x20 ADD SWAP1 DUP2 MSTORE PUSH1 0x20 ADD PUSH1 0x0 KECCAK256 PUSH1 0x0 SWAP1 SLOAD SWAP1 PUSH2 0x100 EXP SWAP1 DIV PUSH1 0xFF AND ISZERO PUSH2 0x8AF JUMPI PUSH1 0x40 MLOAD PUSH32 0x8C379A000000000000000000000000000000000000000000000000000000000 DUP2 MSTORE PUSH1 0x4 ADD PUSH2 0x8A6 SWAP1 PUSH2 0x1A63 JUMP JUMPDEST PUSH1 0x40 MLOAD DUP1 SWAP2 SUB SWAP1 REVERT JUMPDEST PUSH1 0x1 DUP3 DUP2 SLOAD DUP2 LT PUSH2 0x8C3 JUMPI PUSH2 0x8C2 PUSH2 0x1961 JUMP JUMPDEST JUMPDEST SWAP1 PUSH1 0x0 MSTORE PUSH1 0x20 PUSH1 0x0 KECCAK256 SWAP1 PUSH1 0x6 MUL ADD PUSH1 0x5 ADD PUSH1 0x0 DUP3 DUP2 MSTORE PUSH1 0x20 ADD SWAP1 DUP2 MSTORE PUSH1 0x20 ADD PUSH1 0x0 KECCAK256 PUSH1 0x0 DUP2 SLOAD DUP1 SWAP3 SWAP2 SWAP1 PUSH2 0x8F6 SWAP1 PUSH2 0x1A83 JUMP JUMPDEST SWAP2 SWAP1 POP SSTORE POP PUSH1 0x1 DUP1 DUP4 DUP2 SLOAD DUP2 LT PUSH2 0x910 JUMPI PUSH2 0x90F PUSH2 0x1961 JUMP JUMPDEST JUMPDEST SWAP1 PUSH1 0x0 MSTORE PUSH1 0x20 PUSH1 0x0 KECCAK256 SWAP1 PUSH1 0x6 MUL ADD PUSH1 0x4 ADD PUSH1 0x0 CALLER PUSH20 0xFFFFFFFFFFFFFFFFFFFFFFFFFFFFFFFFFFFFFFFF AND PUSH20 0xFFFFFFFFFFFFFFFFFFFFFFFFFFFFFFFFFFFFFFFF AND DUP2 MSTORE PUSH1 0x20 ADD SWAP1 DUP2 MSTORE PUSH1 0x20 ADD PUSH1 0x0 KECCAK256 PUSH1 0x0 PUSH2 0x100 EXP DUP2 SLOAD DUP2 PUSH1 0xFF MUL NOT AND SWAP1 DUP4 ISZERO ISZERO MUL OR SWAP1 SSTORE POP PUSH32 0xEA66F58E474BC09F580000E81F31B334D171DB387D0C6098BA47BD897741679B CALLER DUP4 DUP4 PUSH1 0x40 MLOAD PUSH2 0x9A8 SWAP4 SWAP3 SWAP2 SWAP1 PUSH2 0x1ADA JUMP JUMPDEST PUSH1 0x40 MLOAD DUP1 SWAP2 SUB SWAP1 LOG1 PUSH1 0x2 PUSH1 0x0 SWAP1 SLOAD SWAP1 PUSH2 0x100 EXP SWAP1 DIV PUSH20 0xFFFFFFFFFFFFFFFFFFFFFFFFFFFFFFFFFFFFFFFF AND PUSH20 0xFFFFFFFFFFFFFFFFFFFFFFFFFFFFFFFFFFFFFFFF AND PUSH4 0x40C10F19 CALLER PUSH1 0x1 PUSH1 0x40 MLOAD DUP4 PUSH4 0xFFFFFFFF AND PUSH1 0xE0 SHL DUP2 MSTORE PUSH1 0x4 ADD PUSH2 0xA0E SWAP3 SWAP2 SWAP1 PUSH2 0x1B4C JUMP JUMPDEST PUSH1 0x0 PUSH1 0x40 MLOAD DUP1 DUP4 SUB DUP2 PUSH1 0x0 DUP8 DUP1 EXTCODESIZE ISZERO DUP1 ISZERO PUSH2 0xA28 JUMPI PUSH1 0x0 DUP1 REVERT JUMPDEST POP GAS CALL ISZERO DUP1 ISZERO PUSH2 0xA3C JUMPI RETURNDATASIZE PUSH1 0x0 DUP1 RETURNDATACOPY RETURNDATASIZE PUSH1 0x0 REVERT JUMPDEST POP POP POP POP POP POP JUMP JUMPDEST PUSH32 0xF7D93CB9F09C9F4C8548D99CF7A35B0BCFA92F8500317727364E2B555E9FB998 DUP2 JUMP JUMPDEST PUSH2 0xA71 DUP3 PUSH2 0x349 JUMP JUMPDEST PUSH2 0xA7A DUP2 PUSH2 0xBDD JUMP JUMPDEST PUSH2 0xA84 DUP4 DUP4 PUSH2 0xCEA JUMP JUMPDEST POP POP POP POP JUMP JUMPDEST PUSH32 0xF7D93CB9F09C9F4C8548D99CF7A35B0BCFA92F8500317727364E2B555E9FB998 PUSH2 0xAB4 DUP2 PUSH2 0xBDD JUMP JUMPDEST PUSH1 0x1 DUP1 SLOAD SWAP1 POP DUP3 LT PUSH2 0xAFB JUMPI PUSH1 0x40 MLOAD PUSH32 0x8C379A000000000000000000000000000000000000000000000000000000000 DUP2 MSTORE PUSH1 0x4 ADD PUSH2 0xAF2 SWAP1 PUSH2 0x1941 JUMP JUMPDEST PUSH1 0x40 MLOAD DUP1 SWAP2 SUB SWAP1 REVERT JUMPDEST PUSH1 0x1 DUP1 DUP4 DUP2 SLOAD DUP2 LT PUSH2 0xB10 JUMPI PUSH2 0xB0F PUSH2 0x1961 JUMP JUMPDEST JUMPDEST SWAP1 PUSH1 0x0 MSTORE PUSH1 0x20 PUSH1 0x0 KECCAK256 SWAP1 PUSH1 0x6 MUL ADD PUSH1 0x3 ADD PUSH1 0x0 PUSH2 0x100 EXP DUP2 SLOAD DUP2 PUSH1 0xFF MUL NOT AND SWAP1 DUP4 ISZERO ISZERO MUL OR SWAP1 SSTORE POP PUSH32 0x4D863A7BB9FA1842BB9E4910F424611E539D2BA27A89DBD18D89BA8EB7A494C2 DUP3 PUSH1 0x40 MLOAD PUSH2 0xB67 SWAP2 SWAP1 PUSH2 0x1990 JUMP JUMPDEST PUSH1 0x40 MLOAD DUP1 SWAP2 SUB SWAP1 LOG1 POP POP JUMP JUMPDEST PUSH1 0x0 PUSH32 0x1FFC9A700000000000000000000000000000000000000000000000000000000 PUSH28 0xFFFFFFFFFFFFFFFFFFFFFFFFFFFFFFFFFFFFFFFFFFFFFFFFFFFFFFFF NOT AND DUP3 PUSH28 0xFFFFFFFFFFFFFFFFFFFFFFFFFFFFFFFFFFFFFFFFFFFFFFFFFFFFFFFF NOT AND EQ SWAP1 POP SWAP2 SWAP1 POP JUMP JUMPDEST PUSH2 0xBEE DUP2 PUSH2 0xBE9 PUSH2 0xCE2 JUMP JUMPDEST PUSH2 0xDDC JUMP JUMPDEST POP JUMP JUMPDEST PUSH1 0x0 PUSH2 0xBFD DUP4 DUP4 PUSH2 0x51C JUMP JUMPDEST PUSH2 0xCD7 JUMPI PUSH1 0x1 PUSH1 0x0 DUP1 DUP6 DUP2 MSTORE PUSH1 0x20 ADD SWAP1 DUP2 MSTORE PUSH1 0x20 ADD PUSH1 0x0 KECCAK256 PUSH1 0x0 ADD PUSH1 0x0 DUP5 PUSH20 0xFFFFFFFFFFFFFFFFFFFFFFFFFFFFFFFFFFFFFFFF AND PUSH20 0xFFFFFFFFFFFFFFFFFFFFFFFFFFFFFFFFFFFFFFFF AND DUP2 MSTORE PUSH1 0x20 ADD SWAP1 DUP2 MSTORE PUSH1 0x20 ADD PUSH1 0x0 KECCAK256 PUSH1 0x0 PUSH2 0x100 EXP DUP2 SLOAD DUP2 PUSH1 0xFF MUL NOT AND SWAP1 DUP4 ISZERO ISZERO MUL OR SWAP1 SSTORE POP PUSH2 0xC74 PUSH2 0xCE2 JUMP JUMPDEST PUSH20 0xFFFFFFFFFFFFFFFFFFFFFFFFFFFFFFFFFFFFFFFF AND DUP3 PUSH20 0xFFFFFFFFFFFFFFFFFFFFFFFFFFFFFFFFFFFFFFFF AND DUP5 PUSH32 0x2F8788117E7EFF1D82E926EC794901D17C78024A50270940304540A733656F0D PUSH1 0x40 MLOAD PUSH1 0x40 MLOAD DUP1 SWAP2 SUB SWAP1 LOG4 PUSH1 0x1 SWAP1 POP PUSH2 0xCDC JUMP JUMPDEST PUSH1 0x0 SWAP1 POP JUMPDEST SWAP3 SWAP2 POP POP JUMP JUMPDEST PUSH1 0x0 CALLER SWAP1 POP SWAP1 JUMP JUMPDEST PUSH1 0x0 PUSH2 0xCF6 DUP4 DUP4 PUSH2 0x51C JUMP JUMPDEST ISZERO PUSH2 0xDD1 JUMPI PUSH1 0x0 DUP1 PUSH1 0x0 DUP6 DUP2 MSTORE PUSH1 0x20 ADD SWAP1 DUP2 MSTORE PUSH1 0x20 ADD PUSH1 0x0 KECCAK256 PUSH1 0x0 ADD PUSH1 0x0 DUP5 PUSH20 0xFFFFFFFFFFFFFFFFFFFFFFFFFFFFFFFFFFFFFFFF AND PUSH20 0xFFFFFFFFFFFFFFFFFFFFFFFFFFFFFFFFFFFFFFFF AND DUP2 MSTORE PUSH1 0x20 ADD SWAP1 DUP2 MSTORE PUSH1 0x20 ADD PUSH1 0x0 KECCAK256 PUSH1 0x0 PUSH2 0x100 EXP DUP2 SLOAD DUP2 PUSH1 0xFF MUL NOT AND SWAP1 DUP4 ISZERO ISZERO MUL OR SWAP1 SSTORE POP PUSH2 0xD6E PUSH2 0xCE2 JUMP JUMPDEST PUSH20 0xFFFFFFFFFFFFFFFFFFFFFFFFFFFFFFFFFFFFFFFF AND DUP3 PUSH20 0xFFFFFFFFFFFFFFFFFFFFFFFFFFFFFFFFFFFFFFFF AND DUP5 PUSH32 0xF6391F5C32D9C69D2A47EA670B442974B53935D1EDC7FD64EB21E047A839171B PUSH1 0x40 MLOAD PUSH1 0x40 MLOAD DUP1 SWAP2 SUB SWAP1 LOG4 PUSH1 0x1 SWAP1 POP PUSH2 0xDD6 JUMP JUMPDEST PUSH1 0x0 SWAP1 POP JUMPDEST SWAP3 SWAP2 POP POP JUMP JUMPDEST PUSH2 0xDE6 DUP3 DUP3 PUSH2 0x51C JUMP JUMPDEST PUSH2 0xE29 JUMPI DUP1 DUP3 PUSH1 0x40 MLOAD PUSH32 0xE2517D3F00000000000000000000000000000000000000000000000000000000 DUP2 MSTORE PUSH1 0x4 ADD PUSH2 0xE20 SWAP3 SWAP2 SWAP1 PUSH2 0x1B75 JUMP JUMPDEST PUSH1 0x40 MLOAD DUP1 SWAP2 SUB SWAP1 REVERT JUMPDEST POP POP JUMP JUMPDEST DUP3 DUP1 SLOAD DUP3 DUP3 SSTORE SWAP1 PUSH1 0x0 MSTORE PUSH1 0x20 PUSH1 0x0 KECCAK256 SWAP1 DUP2 ADD SWAP3 DUP3 ISZERO PUSH2 0xE75 JUMPI SWAP2 PUSH1 0x20 MUL DUP3 ADD JUMPDEST DUP3 DUP2 GT ISZERO PUSH2 0xE74 JUMPI DUP3 MLOAD DUP3 SWAP1 DUP2 PUSH2 0xE64 SWAP2 SWAP1 PUSH2 0x17F3 JUMP JUMPDEST POP SWAP2 PUSH1 0x20 ADD SWAP2 SWAP1 PUSH1 0x1 ADD SWAP1 PUSH2 0xE4D JUMP JUMPDEST JUMPDEST POP SWAP1 POP PUSH2 0xE82 SWAP2 SWAP1 PUSH2 0xE86 JUMP JUMPDEST POP SWAP1 JUMP JUMPDEST JUMPDEST DUP1 DUP3 GT ISZERO PUSH2 0xEA6 JUMPI PUSH1 0x0 DUP2 DUP2 PUSH2 0xE9D SWAP2 SWAP1 PUSH2 0xEAA JUMP JUMPDEST POP PUSH1 0x1 ADD PUSH2 0xE87 JUMP JUMPDEST POP SWAP1 JUMP JUMPDEST POP DUP1 SLOAD PUSH2 0xEB6 SWAP1 PUSH2 0x1620 JUMP JUMPDEST PUSH1 0x0 DUP3 SSTORE DUP1 PUSH1 0x1F LT PUSH2 0xEC8 JUMPI POP PUSH2 0xEE7 JUMP JUMPDEST PUSH1 0x1F ADD PUSH1 0x20 SWAP1 DIV SWAP1 PUSH1 0x0 MSTORE PUSH1 0x20 PUSH1 0x0 KECCAK256 SWAP1 DUP2 ADD SWAP1 PUSH2 0xEE6 SWAP2 SWAP1 PUSH2 0xEEA JUMP JUMPDEST JUMPDEST POP JUMP JUMPDEST JUMPDEST DUP1 DUP3 GT ISZERO PUSH2 0xF03 JUMPI PUSH1 0x0 DUP2 PUSH1 0x0 SWAP1 SSTORE POP PUSH1 0x1 ADD PUSH2 0xEEB JUMP JUMPDEST POP SWAP1 JUMP JUMPDEST PUSH1 0x0 PUSH1 0x40 MLOAD SWAP1 POP SWAP1 JUMP JUMPDEST PUSH1 0x0 DUP1 REVERT JUMPDEST PUSH1 0x0 DUP1 REVERT JUMPDEST PUSH1 0x0 PUSH32 0xFFFFFFFF00000000000000000000000000000000000000000000000000000000 DUP3 AND SWAP1 POP SWAP2 SWAP1 POP JUMP JUMPDEST PUSH2 0xF50 DUP2 PUSH2 0xF1B JUMP JUMPDEST DUP2 EQ PUSH2 0xF5B JUMPI PUSH1 0x0 DUP1 REVERT JUMPDEST POP JUMP JUMPDEST PUSH1 0x0 DUP2 CALLDATALOAD SWAP1 POP PUSH2 0xF6D DUP2 PUSH2 0xF47 JUMP JUMPDEST SWAP3 SWAP2 POP POP JUMP JUMPDEST PUSH1 0x0 PUSH1 0x20 DUP3 DUP5 SUB SLT ISZERO PUSH2 0xF89 JUMPI PUSH2 0xF88 PUSH2 0xF11 JUMP JUMPDEST JUMPDEST PUSH1 0x0 PUSH2 0xF97 DUP5 DUP3 DUP6 ADD PUSH2 0xF5E JUMP JUMPDEST SWAP2 POP POP SWAP3 SWAP2 POP POP JUMP JUMPDEST PUSH1 0x0 DUP2 ISZERO ISZERO SWAP1 POP SWAP2 SWAP1 POP JUMP JUMPDEST PUSH2 0xFB5 DUP2 PUSH2 0xFA0 JUMP JUMPDEST DUP3 MSTORE POP POP JUMP JUMPDEST PUSH1 0x0 PUSH1 0x20 DUP3 ADD SWAP1 POP PUSH2 0xFD0 PUSH1 0x0 DUP4 ADD DUP5 PUSH2 0xFAC JUMP JUMPDEST SWAP3 SWAP2 POP POP JUMP JUMPDEST PUSH1 0x0 DUP2 SWAP1 POP SWAP2 SWAP1 POP JUMP JUMPDEST PUSH2 0xFE9 DUP2 PUSH2 0xFD6 JUMP JUMPDEST DUP2 EQ PUSH2 0xFF4 JUMPI PUSH1 0x0 DUP1 REVERT JUMPDEST POP JUMP JUMPDEST PUSH1 0x0 DUP2 CALLDATALOAD SWAP1 POP PUSH2 0x1006 DUP2 PUSH2 0xFE0 JUMP JUMPDEST SWAP3 SWAP2 POP POP JUMP JUMPDEST PUSH1 0x0 PUSH1 0x20 DUP3 DUP5 SUB SLT ISZERO PUSH2 0x1022 JUMPI PUSH2 0x1021 PUSH2 0xF11 JUMP JUMPDEST JUMPDEST PUSH1 0x0 PUSH2 0x1030 DUP5 DUP3 DUP6 ADD PUSH2 0xFF7 JUMP JUMPDEST SWAP2 POP POP SWAP3 SWAP2 POP POP JUMP JUMPDEST PUSH2 0x1042 DUP2 PUSH2 0xFD6 JUMP JUMPDEST DUP3 MSTORE POP POP JUMP JUMPDEST PUSH1 0x0 PUSH1 0x20 DUP3 ADD SWAP1 POP PUSH2 0x105D PUSH1 0x0 DUP4 ADD DUP5 PUSH2 0x1039 JUMP JUMPDEST SWAP3 SWAP2 POP POP JUMP JUMPDEST PUSH1 0x0 PUSH20 0xFFFFFFFFFFFFFFFFFFFFFFFFFFFFFFFFFFFFFFFF DUP3 AND SWAP1 POP SWAP2 SWAP1 POP JUMP JUMPDEST PUSH1 0x0 PUSH2 0x108E DUP3 PUSH2 0x1063 JUMP JUMPDEST SWAP1 POP SWAP2 SWAP1 POP JUMP JUMPDEST PUSH2 0x109E DUP2 PUSH2 0x1083 JUMP JUMPDEST DUP2 EQ PUSH2 0x10A9 JUMPI PUSH1 0x0 DUP1 REVERT JUMPDEST POP JUMP JUMPDEST PUSH1 0x0 DUP2 CALLDATALOAD SWAP1 POP PUSH2 0x10BB DUP2 PUSH2 0x1095 JUMP JUMPDEST SWAP3 SWAP2 POP POP JUMP JUMPDEST PUSH1 0x0 DUP1 PUSH1 0x40 DUP4 DUP6 SUB SLT ISZERO PUSH2 0x10D8 JUMPI PUSH2 0x10D7 PUSH2 0xF11 JUMP JUMPDEST JUMPDEST PUSH1 0x0 PUSH2 0x10E6 DUP6 DUP3 DUP7 ADD PUSH2 0xFF7 JUMP JUMPDEST SWAP3 POP POP PUSH1 0x20 PUSH2 0x10F7 DUP6 DUP3 DUP7 ADD PUSH2 0x10AC JUMP JUMPDEST SWAP2 POP POP SWAP3 POP SWAP3 SWAP1 POP JUMP JUMPDEST PUSH1 0x0 DUP2 SWAP1 POP SWAP2 SWAP1 POP JUMP JUMPDEST PUSH1 0x0 PUSH2 0x1126 PUSH2 0x1121 PUSH2 0x111C DUP5 PUSH2 0x1063 JUMP JUMPDEST PUSH2 0x1101 JUMP JUMPDEST PUSH2 0x1063 JUMP JUMPDEST SWAP1 POP SWAP2 SWAP1 POP JUMP JUMPDEST PUSH1 0x0 PUSH2 0x1138 DUP3 PUSH2 0x110B JUMP JUMPDEST SWAP1 POP SWAP2 SWAP1 POP JUMP JUMPDEST PUSH1 0x0 PUSH2 0x114A DUP3 PUSH2 0x112D JUMP JUMPDEST SWAP1 POP SWAP2 SWAP1 POP JUMP JUMPDEST PUSH2 0x115A DUP2 PUSH2 0x113F JUMP JUMPDEST DUP3 MSTORE POP POP JUMP JUMPDEST PUSH1 0x0 PUSH1 0x20 DUP3 ADD SWAP1 POP PUSH2 0x1175 PUSH1 0x0 DUP4 ADD DUP5 PUSH2 0x1151 JUMP JUMPDEST SWAP3 SWAP2 POP POP JUMP JUMPDEST PUSH1 0x0 DUP1 REVERT JUMPDEST PUSH1 0x0 DUP1 REVERT JUMPDEST PUSH1 0x0 PUSH1 0x1F NOT PUSH1 0x1F DUP4 ADD AND SWAP1 POP SWAP2 SWAP1 POP JUMP JUMPDEST PUSH32 0x4E487B7100000000000000000000000000000000000000000000000000000000 PUSH1 0x0 MSTORE PUSH1 0x41 PUSH1 0x4 MSTORE PUSH1 0x24 PUSH1 0x0 REVERT JUMPDEST PUSH2 0x11CE DUP3 PUSH2 0x1185 JUMP JUMPDEST DUP2 ADD DUP2 DUP2 LT PUSH8 0xFFFFFFFFFFFFFFFF DUP3 GT OR ISZERO PUSH2 0x11ED JUMPI PUSH2 0x11EC PUSH2 0x1196 JUMP JUMPDEST JUMPDEST DUP1 PUSH1 0x40 MSTORE POP POP POP JUMP JUMPDEST PUSH1 0x0 PUSH2 0x1200 PUSH2 0xF07 JUMP JUMPDEST SWAP1 POP PUSH2 0x120C DUP3 DUP3 PUSH2 0x11C5 JUMP JUMPDEST SWAP2 SWAP1 POP JUMP JUMPDEST PUSH1 0x0 PUSH8 0xFFFFFFFFFFFFFFFF DUP3 GT ISZERO PUSH2 0x122C JUMPI PUSH2 0x122B PUSH2 0x1196 JUMP JUMPDEST JUMPDEST PUSH2 0x1235 DUP3 PUSH2 0x1185 JUMP JUMPDEST SWAP1 POP PUSH1 0x20 DUP2 ADD SWAP1 POP SWAP2 SWAP1 POP JUMP JUMPDEST DUP3 DUP2 DUP4 CALLDATACOPY PUSH1 0x0 DUP4 DUP4 ADD MSTORE POP POP POP JUMP JUMPDEST PUSH1 0x0 PUSH2 0x1264 PUSH2 0x125F DUP5 PUSH2 0x1211 JUMP JUMPDEST PUSH2 0x11F6 JUMP JUMPDEST SWAP1 POP DUP3 DUP2 MSTORE PUSH1 0x20 DUP2 ADD DUP5 DUP5 DUP5 ADD GT ISZERO PUSH2 0x1280 JUMPI PUSH2 0x127F PUSH2 0x1180 JUMP JUMPDEST JUMPDEST PUSH2 0x128B DUP5 DUP3 DUP6 PUSH2 0x1242 JUMP JUMPDEST POP SWAP4 SWAP3 POP POP POP JUMP JUMPDEST PUSH1 0x0 DUP3 PUSH1 0x1F DUP4 ADD SLT PUSH2 0x12A8 JUMPI PUSH2 0x12A7 PUSH2 0x117B JUMP JUMPDEST JUMPDEST DUP2 CALLDATALOAD PUSH2 0x12B8 DUP5 DUP3 PUSH1 0x20 DUP7 ADD PUSH2 0x1251 JUMP JUMPDEST SWAP2 POP POP SWAP3 SWAP2 POP POP JUMP JUMPDEST PUSH1 0x0 PUSH8 0xFFFFFFFFFFFFFFFF DUP3 GT ISZERO PUSH2 0x12DC JUMPI PUSH2 0x12DB PUSH2 0x1196 JUMP JUMPDEST JUMPDEST PUSH1 0x20 DUP3 MUL SWAP1 POP PUSH1 0x20 DUP2 ADD SWAP1 POP SWAP2 SWAP1 POP JUMP JUMPDEST PUSH1 0x0 DUP1 REVERT JUMPDEST PUSH1 0x0 PUSH2 0x1305 PUSH2 0x1300 DUP5 PUSH2 0x12C1 JUMP JUMPDEST PUSH2 0x11F6 JUMP JUMPDEST SWAP1 POP DUP1 DUP4 DUP3 MSTORE PUSH1 0x20 DUP3 ADD SWAP1 POP PUSH1 0x20 DUP5 MUL DUP4 ADD DUP6 DUP2 GT ISZERO PUSH2 0x1328 JUMPI PUSH2 0x1327 PUSH2 0x12ED JUMP JUMPDEST JUMPDEST DUP4 JUMPDEST DUP2 DUP2 LT ISZERO PUSH2 0x136F JUMPI DUP1 CALLDATALOAD PUSH8 0xFFFFFFFFFFFFFFFF DUP2 GT ISZERO PUSH2 0x134D JUMPI PUSH2 0x134C PUSH2 0x117B JUMP JUMPDEST JUMPDEST DUP1 DUP7 ADD PUSH2 0x135A DUP10 DUP3 PUSH2 0x1293 JUMP JUMPDEST DUP6 MSTORE PUSH1 0x20 DUP6 ADD SWAP5 POP POP POP PUSH1 0x20 DUP2 ADD SWAP1 POP PUSH2 0x132A JUMP JUMPDEST POP POP POP SWAP4 SWAP3 POP POP POP JUMP JUMPDEST PUSH1 0x0 DUP3 PUSH1 0x1F DUP4 ADD SLT PUSH2 0x138E JUMPI PUSH2 0x138D PUSH2 0x117B JUMP JUMPDEST JUMPDEST DUP2 CALLDATALOAD PUSH2 0x139E DUP5 DUP3 PUSH1 0x20 DUP7 ADD PUSH2 0x12F2 JUMP JUMPDEST SWAP2 POP POP SWAP3 SWAP2 POP POP JUMP JUMPDEST PUSH1 0x0 DUP1 PUSH1 0x40 DUP4 DUP6 SUB SLT ISZERO PUSH2 0x13BE JUMPI PUSH2 0x13BD PUSH2 0xF11 JUMP JUMPDEST JUMPDEST PUSH1 0x0 DUP4 ADD CALLDATALOAD PUSH8 0xFFFFFFFFFFFFFFFF DUP2 GT ISZERO PUSH2 0x13DC JUMPI PUSH2 0x13DB PUSH2 0xF16 JUMP JUMPDEST JUMPDEST PUSH2 0x13E8 DUP6 DUP3 DUP7 ADD PUSH2 0x1293 JUMP JUMPDEST SWAP3 POP POP PUSH1 0x20 DUP4 ADD CALLDATALOAD PUSH8 0xFFFFFFFFFFFFFFFF DUP2 GT ISZERO PUSH2 0x1409 JUMPI PUSH2 0x1408 PUSH2 0xF16 JUMP JUMPDEST JUMPDEST PUSH2 0x1415 DUP6 DUP3 DUP7 ADD PUSH2 0x1379 JUMP JUMPDEST SWAP2 POP POP SWAP3 POP SWAP3 SWAP1 POP JUMP JUMPDEST PUSH1 0x0 DUP2 SWAP1 POP SWAP2 SWAP1 POP JUMP JUMPDEST PUSH2 0x1432 DUP2 PUSH2 0x141F JUMP JUMPDEST DUP2 EQ PUSH2 0x143D JUMPI PUSH1 0x0 DUP1 REVERT JUMPDEST POP JUMP JUMPDEST PUSH1 0x0 DUP2 CALLDATALOAD SWAP1 POP PUSH2 0x144F DUP2 PUSH2 0x1429 JUMP JUMPDEST SWAP3 SWAP2 POP POP JUMP JUMPDEST PUSH1 0x0 PUSH1 0x20 DUP3 DUP5 SUB SLT ISZERO PUSH2 0x146B JUMPI PUSH2 0x146A PUSH2 0xF11 JUMP JUMPDEST JUMPDEST PUSH1 0x0 PUSH2 0x1479 DUP5 DUP3 DUP6 ADD PUSH2 0x1440 JUMP JUMPDEST SWAP2 POP POP SWAP3 SWAP2 POP POP JUMP JUMPDEST PUSH2 0x148B DUP2 PUSH2 0x141F JUMP JUMPDEST DUP3 MSTORE POP POP JUMP JUMPDEST PUSH1 0x0 DUP2 MLOAD SWAP1 POP SWAP2 SWAP1 POP JUMP JUMPDEST PUSH1 0x0 DUP3 DUP3 MSTORE PUSH1 0x20 DUP3 ADD SWAP1 POP SWAP3 SWAP2 POP POP JUMP JUMPDEST PUSH1 0x0 JUMPDEST DUP4 DUP2 LT ISZERO PUSH2 0x14CB JUMPI DUP1 DUP3 ADD MLOAD DUP2 DUP5 ADD MSTORE PUSH1 0x20 DUP2 ADD SWAP1 POP PUSH2 0x14B0 JUMP JUMPDEST PUSH1 0x0 DUP5 DUP5 ADD MSTORE POP POP POP POP JUMP JUMPDEST PUSH1 0x0 PUSH2 0x14E2 DUP3 PUSH2 0x1491 JUMP JUMPDEST PUSH2 0x14EC DUP2 DUP6 PUSH2 0x149C JUMP JUMPDEST SWAP4 POP PUSH2 0x14FC DUP2 DUP6 PUSH1 0x20 DUP7 ADD PUSH2 0x14AD JUMP JUMPDEST PUSH2 0x1505 DUP2 PUSH2 0x1185 JUMP JUMPDEST DUP5 ADD SWAP2 POP POP SWAP3 SWAP2 POP POP JUMP JUMPDEST PUSH1 0x0 PUSH1 0x60 DUP3 ADD SWAP1 POP PUSH2 0x1525 PUSH1 0x0 DUP4 ADD DUP7 PUSH2 0x1482 JUMP JUMPDEST DUP2 DUP2 SUB PUSH1 0x20 DUP4 ADD MSTORE PUSH2 0x1537 DUP2 DUP6 PUSH2 0x14D7 JUMP JUMPDEST SWAP1 POP PUSH2 0x1546 PUSH1 0x40 DUP4 ADD DUP5 PUSH2 0xFAC JUMP JUMPDEST SWAP5 SWAP4 POP POP POP POP JUMP JUMPDEST PUSH1 0x0 DUP1 PUSH1 0x40 DUP4 DUP6 SUB SLT ISZERO PUSH2 0x1565 JUMPI PUSH2 0x1564 PUSH2 0xF11 JUMP JUMPDEST JUMPDEST PUSH1 0x0 PUSH2 0x1573 DUP6 DUP3 DUP7 ADD PUSH2 0x1440 JUMP JUMPDEST SWAP3 POP POP PUSH1 0x20 PUSH2 0x1584 DUP6 DUP3 DUP7 ADD PUSH2 0x1440 JUMP JUMPDEST SWAP2 POP POP SWAP3 POP SWAP3 SWAP1 POP JUMP JUMPDEST PUSH32 0x4E487B7100000000000000000000000000000000000000000000000000000000 PUSH1 0x0 MSTORE PUSH1 0x11 PUSH1 0x4 MSTORE PUSH1 0x24 PUSH1 0x0 REVERT JUMPDEST PUSH1 0x0 PUSH2 0x15C8 DUP3 PUSH2 0x141F JUMP JUMPDEST SWAP2 POP PUSH2 0x15D3 DUP4 PUSH2 0x141F JUMP JUMPDEST SWAP3 POP DUP3 DUP3 SUB SWAP1 POP DUP2 DUP2 GT ISZERO PUSH2 0x15EB JUMPI PUSH2 0x15EA PUSH2 0x158E JUMP JUMPDEST JUMPDEST SWAP3 SWAP2 POP POP JUMP JUMPDEST PUSH32 0x4E487B7100000000000000000000000000000000000000000000000000000000 PUSH1 0x0 MSTORE PUSH1 0x22 PUSH1 0x4 MSTORE PUSH1 0x24 PUSH1 0x0 REVERT JUMPDEST PUSH1 0x0 PUSH1 0x2 DUP3 DIV SWAP1 POP PUSH1 0x1 DUP3 AND DUP1 PUSH2 0x1638 JUMPI PUSH1 0x7F DUP3 AND SWAP2 POP JUMPDEST PUSH1 0x20 DUP3 LT DUP2 SUB PUSH2 0x164B JUMPI PUSH2 0x164A PUSH2 0x15F1 JUMP JUMPDEST JUMPDEST POP SWAP2 SWAP1 POP JUMP JUMPDEST PUSH1 0x0 DUP2 SWAP1 POP DUP2 PUSH1 0x0 MSTORE PUSH1 0x20 PUSH1 0x0 KECCAK256 SWAP1 POP SWAP2 SWAP1 POP JUMP JUMPDEST PUSH1 0x0 PUSH1 0x20 PUSH1 0x1F DUP4 ADD DIV SWAP1 POP SWAP2 SWAP1 POP JUMP JUMPDEST PUSH1 0x0 DUP3 DUP3 SHL SWAP1 POP SWAP3 SWAP2 POP POP JUMP JUMPDEST PUSH1 0x0 PUSH1 0x8 DUP4 MUL PUSH2 0x16B3 PUSH32 0xFFFFFFFFFFFFFFFFFFFFFFFFFFFFFFFFFFFFFFFFFFFFFFFFFFFFFFFFFFFFFFFF DUP3 PUSH2 0x1676 JUMP JUMPDEST PUSH2 0x16BD DUP7 DUP4 PUSH2 0x1676 JUMP JUMPDEST SWAP6 POP DUP1 NOT DUP5 AND SWAP4 POP DUP1 DUP7 AND DUP5 OR SWAP3 POP POP POP SWAP4 SWAP3 POP POP POP JUMP JUMPDEST PUSH1 0x0 PUSH2 0x16F0 PUSH2 0x16EB PUSH2 0x16E6 DUP5 PUSH2 0x141F JUMP JUMPDEST PUSH2 0x1101 JUMP JUMPDEST PUSH2 0x141F JUMP JUMPDEST SWAP1 POP SWAP2 SWAP1 POP JUMP JUMPDEST PUSH1 0x0 DUP2 SWAP1 POP SWAP2 SWAP1 POP JUMP JUMPDEST PUSH2 0x170A DUP4 PUSH2 0x16D5 JUMP JUMPDEST PUSH2 0x171E PUSH2 0x1716 DUP3 PUSH2 0x16F7 JUMP JUMPDEST DUP5 DUP5 SLOAD PUSH2 0x1683 JUMP JUMPDEST DUP3 SSTORE POP POP POP POP JUMP JUMPDEST PUSH1 0x0 SWAP1 JUMP JUMPDEST PUSH2 0x1733 PUSH2 0x1726 JUMP JUMPDEST PUSH2 0x173E DUP2 DUP5 DUP5 PUSH2 0x1701 JUMP JUMPDEST POP POP POP JUMP JUMPDEST JUMPDEST DUP2 DUP2 LT ISZERO PUSH2 0x1762 JUMPI PUSH2 0x1757 PUSH1 0x0 DUP3 PUSH2 0x172B JUMP JUMPDEST PUSH1 0x1 DUP2 ADD SWAP1 POP PUSH2 0x1744 JUMP JUMPDEST POP POP JUMP JUMPDEST PUSH1 0x1F DUP3 GT ISZERO PUSH2 0x17A7 JUMPI PUSH2 0x1778 DUP2 PUSH2 0x1651 JUMP JUMPDEST PUSH2 0x1781 DUP5 PUSH2 0x1666 JUMP JUMPDEST DUP2 ADD PUSH1 0x20 DUP6 LT ISZERO PUSH2 0x1790 JUMPI DUP2 SWAP1 POP JUMPDEST PUSH2 0x17A4 PUSH2 0x179C DUP6 PUSH2 0x1666 JUMP JUMPDEST DUP4 ADD DUP3 PUSH2 0x1743 JUMP JUMPDEST POP POP JUMPDEST POP POP POP JUMP JUMPDEST PUSH1 0x0 DUP3 DUP3 SHR SWAP1 POP SWAP3 SWAP2 POP POP JUMP JUMPDEST PUSH1 0x0 PUSH2 0x17CA PUSH1 0x0 NOT DUP5 PUSH1 0x8 MUL PUSH2 0x17AC JUMP JUMPDEST NOT DUP1 DUP4 AND SWAP2 POP POP SWAP3 SWAP2 POP POP JUMP JUMPDEST PUSH1 0x0 PUSH2 0x17E3 DUP4 DUP4 PUSH2 0x17B9 JUMP JUMPDEST SWAP2 POP DUP3 PUSH1 0x2 MUL DUP3 OR SWAP1 POP SWAP3 SWAP2 POP POP JUMP JUMPDEST PUSH2 0x17FC DUP3 PUSH2 0x1491 JUMP JUMPDEST PUSH8 0xFFFFFFFFFFFFFFFF DUP2 GT ISZERO PUSH2 0x1815 JUMPI PUSH2 0x1814 PUSH2 0x1196 JUMP JUMPDEST JUMPDEST PUSH2 0x181F DUP3 SLOAD PUSH2 0x1620 JUMP JUMPDEST PUSH2 0x182A DUP3 DUP3 DUP6 PUSH2 0x1766 JUMP JUMPDEST PUSH1 0x0 PUSH1 0x20 SWAP1 POP PUSH1 0x1F DUP4 GT PUSH1 0x1 DUP2 EQ PUSH2 0x185D JUMPI PUSH1 0x0 DUP5 ISZERO PUSH2 0x184B JUMPI DUP3 DUP8 ADD MLOAD SWAP1 POP JUMPDEST PUSH2 0x1855 DUP6 DUP3 PUSH2 0x17D7 JUMP JUMPDEST DUP7 SSTORE POP PUSH2 0x18BD JUMP JUMPDEST PUSH1 0x1F NOT DUP5 AND PUSH2 0x186B DUP7 PUSH2 0x1651 JUMP JUMPDEST PUSH1 0x0 JUMPDEST DUP3 DUP2 LT ISZERO PUSH2 0x1893 JUMPI DUP5 DUP10 ADD MLOAD DUP3 SSTORE PUSH1 0x1 DUP3 ADD SWAP2 POP PUSH1 0x20 DUP6 ADD SWAP5 POP PUSH1 0x20 DUP2 ADD SWAP1 POP PUSH2 0x186E JUMP JUMPDEST DUP7 DUP4 LT ISZERO PUSH2 0x18B0 JUMPI DUP5 DUP10 ADD MLOAD PUSH2 0x18AC PUSH1 0x1F DUP10 AND DUP3 PUSH2 0x17B9 JUMP JUMPDEST DUP4 SSTORE POP JUMPDEST PUSH1 0x1 PUSH1 0x2 DUP9 MUL ADD DUP9 SSTORE POP POP POP JUMPDEST POP POP POP POP POP POP JUMP JUMPDEST PUSH1 0x0 PUSH1 0x40 DUP3 ADD SWAP1 POP PUSH2 0x18DA PUSH1 0x0 DUP4 ADD DUP6 PUSH2 0x1482 JUMP JUMPDEST DUP2 DUP2 SUB PUSH1 0x20 DUP4 ADD MSTORE PUSH2 0x18EC DUP2 DUP5 PUSH2 0x14D7 JUMP JUMPDEST SWAP1 POP SWAP4 SWAP3 POP POP POP JUMP JUMPDEST PUSH32 0x506F6C6C20646F6573206E6F742065786973742E000000000000000000000000 PUSH1 0x0 DUP3 ADD MSTORE POP JUMP JUMPDEST PUSH1 0x0 PUSH2 0x192B PUSH1 0x14 DUP4 PUSH2 0x149C JUMP JUMPDEST SWAP2 POP PUSH2 0x1936 DUP3 PUSH2 0x18F5 JUMP JUMPDEST PUSH1 0x20 DUP3 ADD SWAP1 POP SWAP2 SWAP1 POP JUMP JUMPDEST PUSH1 0x0 PUSH1 0x20 DUP3 ADD SWAP1 POP DUP2 DUP2 SUB PUSH1 0x0 DUP4 ADD MSTORE PUSH2 0x195A DUP2 PUSH2 0x191E JUMP JUMPDEST SWAP1 POP SWAP2 SWAP1 POP JUMP JUMPDEST PUSH32 0x4E487B7100000000000000000000000000000000000000000000000000000000 PUSH1 0x0 MSTORE PUSH1 0x32 PUSH1 0x4 MSTORE PUSH1 0x24 PUSH1 0x0 REVERT JUMPDEST PUSH1 0x0 PUSH1 0x20 DUP3 ADD SWAP1 POP PUSH2 0x19A5 PUSH1 0x0 DUP4 ADD DUP5 PUSH2 0x1482 JUMP JUMPDEST SWAP3 SWAP2 POP POP JUMP JUMPDEST PUSH32 0x506F6C6C206973206E6F74206163746976652E00000000000000000000000000 PUSH1 0x0 DUP3 ADD MSTORE POP JUMP JUMPDEST PUSH1 0x0 PUSH2 0x19E1 PUSH1 0x13 DUP4 PUSH2 0x149C JUMP JUMPDEST SWAP2 POP PUSH2 0x19EC DUP3 PUSH2 0x19AB JUMP JUMPDEST PUSH1 0x20 DUP3 ADD SWAP1 POP SWAP2 SWAP1 POP JUMP JUMPDEST PUSH1 0x0 PUSH1 0x20 DUP3 ADD SWAP1 POP DUP2 DUP2 SUB PUSH1 0x0 DUP4 ADD MSTORE PUSH2 0x1A10 DUP2 PUSH2 0x19D4 JUMP JUMPDEST SWAP1 POP SWAP2 SWAP1 POP JUMP JUMPDEST PUSH32 0x416C726561647920766F7465642E000000000000000000000000000000000000 PUSH1 0x0 DUP3 ADD MSTORE POP JUMP JUMPDEST PUSH1 0x0 PUSH2 0x1A4D PUSH1 0xE DUP4 PUSH2 0x149C JUMP JUMPDEST SWAP2 POP PUSH2 0x1A58 DUP3 PUSH2 0x1A17 JUMP JUMPDEST PUSH1 0x20 DUP3 ADD SWAP1 POP SWAP2 SWAP1 POP JUMP JUMPDEST PUSH1 0x0 PUSH1 0x20 DUP3 ADD SWAP1 POP DUP2 DUP2 SUB PUSH1 0x0 DUP4 ADD MSTORE PUSH2 0x1A7C DUP2 PUSH2 0x1A40 JUMP JUMPDEST SWAP1 POP SWAP2 SWAP1 POP JUMP JUMPDEST PUSH1 0x0 PUSH2 0x1A8E DUP3 PUSH2 0x141F JUMP JUMPDEST SWAP2 POP PUSH32 0xFFFFFFFFFFFFFFFFFFFFFFFFFFFFFFFFFFFFFFFFFFFFFFFFFFFFFFFFFFFFFFFF DUP3 SUB PUSH2 0x1AC0 JUMPI PUSH2 0x1ABF PUSH2 0x158E JUMP JUMPDEST JUMPDEST PUSH1 0x1 DUP3 ADD SWAP1 POP SWAP2 SWAP1 POP JUMP JUMPDEST PUSH2 0x1AD4 DUP2 PUSH2 0x1083 JUMP JUMPDEST DUP3 MSTORE POP POP JUMP JUMPDEST PUSH1 0x0 PUSH1 0x60 DUP3 ADD SWAP1 POP PUSH2 0x1AEF PUSH1 0x0 DUP4 ADD DUP7 PUSH2 0x1ACB JUMP JUMPDEST PUSH2 0x1AFC PUSH1 0x20 DUP4 ADD DUP6 PUSH2 0x1482 JUMP JUMPDEST PUSH2 0x1B09 PUSH1 0x40 DUP4 ADD DUP5 PUSH2 0x1482 JUMP JUMPDEST SWAP5 SWAP4 POP POP POP POP JUMP JUMPDEST PUSH1 0x0 DUP2 SWAP1 POP SWAP2 SWAP1 POP JUMP JUMPDEST PUSH1 0x0 PUSH2 0x1B36 PUSH2 0x1B31 PUSH2 0x1B2C DUP5 PUSH2 0x1B11 JUMP JUMPDEST PUSH2 0x1101 JUMP JUMPDEST PUSH2 0x141F JUMP JUMPDEST SWAP1 POP SWAP2 SWAP1 POP JUMP JUMPDEST PUSH2 0x1B46 DUP2 PUSH2 0x1B1B JUMP JUMPDEST DUP3 MSTORE POP POP JUMP JUMPDEST PUSH1 0x0 PUSH1 0x40 DUP3 ADD SWAP1 POP PUSH2 0x1B61 PUSH1 0x0 DUP4 ADD DUP6 PUSH2 0x1ACB JUMP JUMPDEST PUSH2 0x1B6E PUSH1 0x20 DUP4 ADD DUP5 PUSH2 0x1B3D JUMP JUMPDEST SWAP4 SWAP3 POP POP POP JUMP JUMPDEST PUSH1 0x0 PUSH1 0x40 DUP3 ADD SWAP1 POP PUSH2 0x1B8A PUSH1 0x0 DUP4 ADD DUP6 PUSH2 0x1ACB JUMP JUMPDEST PUSH2 0x1B97 PUSH1 0x20 DUP4 ADD DUP5 PUSH2 0x1039 JUMP JUMPDEST SWAP4 SWAP3 POP POP POP JUMP INVALID LOG2 PUSH5 0x6970667358 0x22 SLT KECCAK256 0xAD 0x24 DIV 0x4A CALLDATALOAD 0xBD EXP 0xBB BASEFEE 0xBC 0xAF PUSH1 0x98 0x4F SWAP8 POP ADDMOD 0xDF ORIGIN 0xC6 0xB8 0xC7 0xCB 0x4E AND 0xAC MUL PUSH1 0x18 SWAP14 SGT PUSH6 0x64736F6C6343 STOP ADDMOD EQ STOP CALLER "},"methodIdentifiers":{"DEFAULT_ADMIN_ROLE()":"a217fddf","POLL_MANAGER_ROLE()":"ce3dbda1","activatePoll(uint256)":"ebb96896","closePoll(uint256)":"9534e637","createPoll(string,string[])":"7e3d71c3","getRoleAdmin(bytes32)":"248a9ca3","grantRole(bytes32,address)":"2f2ff15d","hasRole(bytes32,address)":"91d14854","polls(uint256)":"ac2f0074","renounceRole(bytes32,address)":"36568abe","revokeRole(bytes32,address)":"d547741f","supportsInterface(bytes4)":"01ffc9a7","tokenContract()":"55a373d6","vote(uint256,uint256)":"b384abef"}}}}}