{
  "_format": "hh-sol-artifact-1",
  "contractName": "CompanyMaster",
  "sourceName": "contracts/CompanyMaster.sol",
  "abi": [
    {
      "inputs": [],
      "stateMutability": "nonpayable",
      "type": "constructor"
    },
    {
      "inputs": [],
      "name": "AccessControlBadConfirmation",
      "type": "error"
    },
    {
      "inputs": [
        {
          "internalType": "address",
          "name": "account",
          "type": "address"
        },
        {
          "internalType": "bytes32",
          "name": "neededRole",
          "type": "bytes32"
        }
      ],
      "name": "AccessControlUnauthorizedAccount",
      "type": "error"
    },
    {
      "inputs": [
        {
          "internalType": "address",
          "name": "owner",
          "type": "address"
        }
      ],
      "name": "OwnableInvalidOwner",
      "type": "error"
    },
    {
      "inputs": [
        {
          "internalType": "address",
          "name": "account",
          "type": "address"
        }
      ],
      "name": "OwnableUnauthorizedAccount",
      "type": "error"
    },
    {
      "anonymous": false,
      "inputs": [
        {
          "indexed": false,
          "internalType": "string",
          "name": "contractType",
          "type": "string"
        },
        {
          "indexed": false,
          "internalType": "address",
          "name": "deployedAddress",
          "type": "address"
        }
      ],
      "name": "ContractDeployed",
      "type": "event"
    },
    {
      "anonymous": false,
      "inputs": [
        {
          "indexed": true,
          "internalType": "address",
          "name": "previousOwner",
          "type": "address"
        },
        {
          "indexed": true,
          "internalType": "address",
          "name": "newOwner",
          "type": "address"
        }
      ],
      "name": "OwnershipTransferred",
      "type": "event"
    },
    {
      "anonymous": false,
      "inputs": [
        {
          "indexed": true,
          "internalType": "bytes32",
          "name": "role",
          "type": "bytes32"
        },
        {
          "indexed": true,
          "internalType": "bytes32",
          "name": "previousAdminRole",
          "type": "bytes32"
        },
        {
          "indexed": true,
          "internalType": "bytes32",
          "name": "newAdminRole",
          "type": "bytes32"
        }
      ],
      "name": "RoleAdminChanged",
      "type": "event"
    },
    {
      "anonymous": false,
      "inputs": [
        {
          "indexed": true,
          "internalType": "bytes32",
          "name": "role",
          "type": "bytes32"
        },
        {
          "indexed": true,
          "internalType": "address",
          "name": "account",
          "type": "address"
        },
        {
          "indexed": true,
          "internalType": "address",
          "name": "sender",
          "type": "address"
        }
      ],
      "name": "RoleGranted",
      "type": "event"
    },
    {
      "anonymous": false,
      "inputs": [
        {
          "indexed": true,
          "internalType": "bytes32",
          "name": "role",
          "type": "bytes32"
        },
        {
          "indexed": true,
          "internalType": "address",
          "name": "account",
          "type": "address"
        },
        {
          "indexed": true,
          "internalType": "address",
          "name": "sender",
          "type": "address"
        }
      ],
      "name": "RoleRevoked",
      "type": "event"
    },
    {
      "inputs": [],
      "name": "DEFAULT_ADMIN_ROLE",
      "outputs": [
        {
          "internalType": "bytes32",
          "name": "",
          "type": "bytes32"
        }
      ],
      "stateMutability": "view",
      "type": "function"
    },
    {
      "inputs": [],
      "name": "POLL_MANAGER_ROLE",
      "outputs": [
        {
          "internalType": "bytes32",
          "name": "",
          "type": "bytes32"
        }
      ],
      "stateMutability": "view",
      "type": "function"
    },
    {
      "inputs": [],
      "name": "TOKEN_MANAGER_ROLE",
      "outputs": [
        {
          "internalType": "bytes32",
          "name": "",
          "type": "bytes32"
        }
      ],
      "stateMutability": "view",
      "type": "function"
    },
    {
      "inputs": [],
      "name": "USER_MANAGER_ROLE",
      "outputs": [
        {
          "internalType": "bytes32",
          "name": "",
          "type": "bytes32"
        }
      ],
      "stateMutability": "view",
      "type": "function"
    },
    {
      "inputs": [
        {
          "internalType": "address",
          "name": "_loyaltyToken",
          "type": "address"
        }
      ],
      "name": "deployLoyaltyToken",
      "outputs": [],
      "stateMutability": "nonpayable",
      "type": "function"
    },
    {
      "inputs": [
        {
          "internalType": "address",
          "name": "_pollContract",
          "type": "address"
        }
      ],
      "name": "deployPollContract",
      "outputs": [],
      "stateMutability": "nonpayable",
      "type": "function"
    },
    {
      "inputs": [
        {
          "internalType": "address",
          "name": "_userContract",
          "type": "address"
        }
      ],
      "name": "deployUserContract",
      "outputs": [],
      "stateMutability": "nonpayable",
      "type": "function"
    },
    {
      "inputs": [
        {
          "internalType": "bytes32",
          "name": "role",
          "type": "bytes32"
        }
      ],
      "name": "getRoleAdmin",
      "outputs": [
        {
          "internalType": "bytes32",
          "name": "",
          "type": "bytes32"
        }
      ],
      "stateMutability": "view",
      "type": "function"
    },
    {
      "inputs": [
        {
          "internalType": "bytes32",
          "name": "role",
          "type": "bytes32"
        },
        {
          "internalType": "address",
          "name": "account",
          "type": "address"
        }
      ],
      "name": "grantRole",
      "outputs": [],
      "stateMutability": "nonpayable",
      "type": "function"
    },
    {
      "inputs": [
        {
          "internalType": "bytes32",
          "name": "role",
          "type": "bytes32"
        },
        {
          "internalType": "address",
          "name": "account",
          "type": "address"
        }
      ],
      "name": "hasRole",
      "outputs": [
        {
          "internalType": "bool",
          "name": "",
          "type": "bool"
        }
      ],
      "stateMutability": "view",
      "type": "function"
    },
    {
      "inputs": [],
      "name": "loyaltyToken",
      "outputs": [
        {
          "internalType": "address",
          "name": "",
          "type": "address"
        }
      ],
      "stateMutability": "view",
      "type": "function"
    },
    {
      "inputs": [
        {
          "internalType": "address",
          "name": "user",
          "type": "address"
        },
        {
          "internalType": "bool",
          "name": "isActive",
          "type": "bool"
        }
      ],
      "name": "manageUser",
      "outputs": [],
      "stateMutability": "nonpayable",
      "type": "function"
    },
    {
      "inputs": [],
      "name": "owner",
      "outputs": [
        {
          "internalType": "address",
          "name": "",
          "type": "address"
        }
      ],
      "stateMutability": "view",
      "type": "function"
    },
    {
      "inputs": [],
      "name": "pollContract",
      "outputs": [
        {
          "internalType": "address",
          "name": "",
          "type": "address"
        }
      ],
      "stateMutability": "view",
      "type": "function"
    },
    {
      "inputs": [],
      "name": "renounceOwnership",
      "outputs": [],
      "stateMutability": "nonpayable",
      "type": "function"
    },
    {
      "inputs": [
        {
          "internalType": "bytes32",
          "name": "role",
          "type": "bytes32"
        },
        {
          "internalType": "address",
          "name": "callerConfirmation",
          "type": "address"
        }
      ],
      "name": "renounceRole",
      "outputs": [],
      "stateMutability": "nonpayable",
      "type": "function"
    },
    {
      "inputs": [
        {
          "internalType": "bytes32",
          "name": "role",
          "type": "bytes32"
        },
        {
          "internalType": "address",
          "name": "account",
          "type": "address"
        }
      ],
      "name": "revokeRole",
      "outputs": [],
      "stateMutability": "nonpayable",
      "type": "function"
    },
    {
      "inputs": [
        {
          "internalType": "bytes32",
          "name": "role",
          "type": "bytes32"
        },
        {
          "internalType": "address",
          "name": "account",
          "type": "address"
        }
      ],
      "name": "setupRole",
      "outputs": [],
      "stateMutability": "nonpayable",
      "type": "function"
    },
    {
      "inputs": [
        {
          "internalType": "bytes4",
          "name": "interfaceId",
          "type": "bytes4"
        }
      ],
      "name": "supportsInterface",
      "outputs": [
        {
          "internalType": "bool",
          "name": "",
          "type": "bool"
        }
      ],
      "stateMutability": "view",
      "type": "function"
    },
    {
      "inputs": [
        {
          "internalType": "address",
          "name": "newOwner",
          "type": "address"
        }
      ],
      "name": "transferOwnership",
      "outputs": [],
      "stateMutability": "nonpayable",
      "type": "function"
    },
    {
      "inputs": [],
      "name": "userContract",
      "outputs": [
        {
          "internalType": "address",
          "name": "",
          "type": "address"
        }
      ],
      "stateMutability": "view",
      "type": "function"
    }
  ],
  "bytecode": "0x60806040523480156200001157600080fd5b5033600073ffffffffffffffffffffffffffffffffffffffff168173ffffffffffffffffffffffffffffffffffffffff1603620000885760006040517f1e4fbdf70000000000000000000000000000000000000000000000000000000081526004016200007f919062000458565b60405180910390fd5b62000099816200015560201b60201c565b50620000af6000801b336200021960201b60201c565b50620000e57ff7d93cb9f09c9f4c8548d99cf7a35b0bcfa92f8500317727364e2b555e9fb9986000801b6200031c60201b60201c565b6200011a7f74f7a545c65c11839a48d7453738b30c295408df2d944516167556759ddc6d066000801b6200031c60201b60201c565b6200014f7fcbaaf41b181bb6e269c490e876a7c97711b57e21dd8e5528423cf57579726b356000801b6200031c60201b60201c565b62000475565b60008060009054906101000a900473ffffffffffffffffffffffffffffffffffffffff169050816000806101000a81548173ffffffffffffffffffffffffffffffffffffffff021916908373ffffffffffffffffffffffffffffffffffffffff1602179055508173ffffffffffffffffffffffffffffffffffffffff168173ffffffffffffffffffffffffffffffffffffffff167f8be0079c531659141344cd1fd0a4f28419497f9722a3daafe3b4186f6b6457e060405160405180910390a35050565b60006200022d83836200038060201b60201c565b6200031157600180600085815260200190815260200160002060000160008473ffffffffffffffffffffffffffffffffffffffff1673ffffffffffffffffffffffffffffffffffffffff16815260200190815260200160002060006101000a81548160ff021916908315150217905550620002ad620003eb60201b60201c565b73ffffffffffffffffffffffffffffffffffffffff168273ffffffffffffffffffffffffffffffffffffffff16847f2f8788117e7eff1d82e926ec794901d17c78024a50270940304540a733656f0d60405160405180910390a46001905062000316565b600090505b92915050565b60006200032f83620003f360201b60201c565b90508160016000858152602001908152602001600020600101819055508181847fbd79b86ffe0ab8e8776151514217cd7cacd52c909f66475c3af44e129f0b00ff60405160405180910390a4505050565b60006001600084815260200190815260200160002060000160008373ffffffffffffffffffffffffffffffffffffffff1673ffffffffffffffffffffffffffffffffffffffff16815260200190815260200160002060009054906101000a900460ff16905092915050565b600033905090565b600060016000838152602001908152602001600020600101549050919050565b600073ffffffffffffffffffffffffffffffffffffffff82169050919050565b6000620004408262000413565b9050919050565b620004528162000433565b82525050565b60006020820190506200046f600083018462000447565b92915050565b61132280620004856000396000f3fe608060405234801561001057600080fd5b50600436106101375760003560e01c806391d14854116100b8578063c2840e601161007c578063c2840e6014610316578063ce3dbda114610334578063d547741f14610352578063f185991f1461036e578063f2fde38b1461038a578063fa82ac76146103a657610137565b806391d1485414610272578063a217fddf146102a2578063a41e35c3146102c0578063b15a73b1146102de578063bfeb65e9146102fa57610137565b80635000596b116100ff5780635000596b146101f2578063715018a614610210578063770aa84d1461021a5780637adc5b46146102385780638da5cb5b1461025457610137565b806301ffc9a71461013c578063248a9ca31461016c578063257ffae31461019c5780632f2ff15d146101ba57806336568abe146101d6575b600080fd5b61015660048036038101906101519190610e5e565b6103c2565b6040516101639190610ea6565b60405180910390f35b61018660048036038101906101819190610ef7565b61043c565b6040516101939190610f33565b60405180910390f35b6101a461045c565b6040516101b19190610f8f565b60405180910390f35b6101d460048036038101906101cf9190610fd6565b610482565b005b6101f060048036038101906101eb9190610fd6565b6104a4565b005b6101fa61051f565b6040516102079190610f8f565b60405180910390f35b610218610545565b005b610222610559565b60405161022f9190610f8f565b60405180910390f35b610252600480360381019061024d9190611042565b61057f565b005b61025c6106ac565b6040516102699190610f8f565b60405180910390f35b61028c60048036038101906102879190610fd6565b6106d5565b6040516102999190610ea6565b60405180910390f35b6102aa610740565b6040516102b79190610f33565b60405180910390f35b6102c8610747565b6040516102d59190610f33565b60405180910390f35b6102f860048036038101906102f39190611082565b61076b565b005b610314600480360381019061030f9190611082565b6107ee565b005b61031e610871565b60405161032b9190610f33565b60405180910390f35b61033c610895565b6040516103499190610f33565b60405180910390f35b61036c60048036038101906103679190610fd6565b6108b9565b005b61038860048036038101906103839190611082565b6108db565b005b6103a4600480360381019061039f9190611082565b61095e565b005b6103c060048036038101906103bb9190610fd6565b6109e4565b005b60007f7965db0b000000000000000000000000000000000000000000000000000000007bffffffffffffffffffffffffffffffffffffffffffffffffffffffff1916827bffffffffffffffffffffffffffffffffffffffffffffffffffffffff191614806104355750610434826109fb565b5b9050919050565b600060016000838152602001908152602001600020600101549050919050565b600460009054906101000a900473ffffffffffffffffffffffffffffffffffffffff1681565b61048b8261043c565b61049481610a65565b61049e8383610a79565b50505050565b6104ac610b6a565b73ffffffffffffffffffffffffffffffffffffffff168173ffffffffffffffffffffffffffffffffffffffff1614610510576040517f6697b23200000000000000000000000000000000000000000000000000000000815260040160405180910390fd5b61051a8282610b72565b505050565b600360009054906101000a900473ffffffffffffffffffffffffffffffffffffffff1681565b61054d610c65565b6105576000610cec565b565b600260009054906101000a900473ffffffffffffffffffffffffffffffffffffffff1681565b7fcbaaf41b181bb6e269c490e876a7c97711b57e21dd8e5528423cf57579726b356105a981610a65565b600073ffffffffffffffffffffffffffffffffffffffff168373ffffffffffffffffffffffffffffffffffffffff1603610618576040517f08c379a000000000000000000000000000000000000000000000000000000000815260040161060f9061110c565b60405180910390fd5b600360009054906101000a900473ffffffffffffffffffffffffffffffffffffffff1673ffffffffffffffffffffffffffffffffffffffff166388e084ca84846040518363ffffffff1660e01b815260040161067592919061112c565b600060405180830381600087803b15801561068f57600080fd5b505af11580156106a3573d6000803e3d6000fd5b50505050505050565b60008060009054906101000a900473ffffffffffffffffffffffffffffffffffffffff16905090565b60006001600084815260200190815260200160002060000160008373ffffffffffffffffffffffffffffffffffffffff1673ffffffffffffffffffffffffffffffffffffffff16815260200190815260200160002060009054906101000a900460ff16905092915050565b6000801b81565b7fcbaaf41b181bb6e269c490e876a7c97711b57e21dd8e5528423cf57579726b3581565b610773610c65565b80600260006101000a81548173ffffffffffffffffffffffffffffffffffffffff021916908373ffffffffffffffffffffffffffffffffffffffff1602179055507f4da8c8e82a6cdcd021dddec73a637b429d2b0a9b303638f1258ff8a35c3e5d86816040516107e391906111a1565b60405180910390a150565b6107f6610c65565b80600460006101000a81548173ffffffffffffffffffffffffffffffffffffffff021916908373ffffffffffffffffffffffffffffffffffffffff1602179055507f4da8c8e82a6cdcd021dddec73a637b429d2b0a9b303638f1258ff8a35c3e5d8681604051610866919061121b565b60405180910390a150565b7f74f7a545c65c11839a48d7453738b30c295408df2d944516167556759ddc6d0681565b7ff7d93cb9f09c9f4c8548d99cf7a35b0bcfa92f8500317727364e2b555e9fb99881565b6108c28261043c565b6108cb81610a65565b6108d58383610b72565b50505050565b6108e3610c65565b80600360006101000a81548173ffffffffffffffffffffffffffffffffffffffff021916908373ffffffffffffffffffffffffffffffffffffffff1602179055507f4da8c8e82a6cdcd021dddec73a637b429d2b0a9b303638f1258ff8a35c3e5d86816040516109539190611295565b60405180910390a150565b610966610c65565b600073ffffffffffffffffffffffffffffffffffffffff168173ffffffffffffffffffffffffffffffffffffffff16036109d85760006040517f1e4fbdf70000000000000000000000000000000000000000000000000000000081526004016109cf9190610f8f565b60405180910390fd5b6109e181610cec565b50565b6109ec610c65565b6109f68282610a79565b505050565b60007f01ffc9a7000000000000000000000000000000000000000000000000000000007bffffffffffffffffffffffffffffffffffffffffffffffffffffffff1916827bffffffffffffffffffffffffffffffffffffffffffffffffffffffff1916149050919050565b610a7681610a71610b6a565b610db0565b50565b6000610a8583836106d5565b610b5f57600180600085815260200190815260200160002060000160008473ffffffffffffffffffffffffffffffffffffffff1673ffffffffffffffffffffffffffffffffffffffff16815260200190815260200160002060006101000a81548160ff021916908315150217905550610afc610b6a565b73ffffffffffffffffffffffffffffffffffffffff168273ffffffffffffffffffffffffffffffffffffffff16847f2f8788117e7eff1d82e926ec794901d17c78024a50270940304540a733656f0d60405160405180910390a460019050610b64565b600090505b92915050565b600033905090565b6000610b7e83836106d5565b15610c5a5760006001600085815260200190815260200160002060000160008473ffffffffffffffffffffffffffffffffffffffff1673ffffffffffffffffffffffffffffffffffffffff16815260200190815260200160002060006101000a81548160ff021916908315150217905550610bf7610b6a565b73ffffffffffffffffffffffffffffffffffffffff168273ffffffffffffffffffffffffffffffffffffffff16847ff6391f5c32d9c69d2a47ea670b442974b53935d1edc7fd64eb21e047a839171b60405160405180910390a460019050610c5f565b600090505b92915050565b610c6d610b6a565b73ffffffffffffffffffffffffffffffffffffffff16610c8b6106ac565b73ffffffffffffffffffffffffffffffffffffffff1614610cea57610cae610b6a565b6040517f118cdaa7000000000000000000000000000000000000000000000000000000008152600401610ce19190610f8f565b60405180910390fd5b565b60008060009054906101000a900473ffffffffffffffffffffffffffffffffffffffff169050816000806101000a81548173ffffffffffffffffffffffffffffffffffffffff021916908373ffffffffffffffffffffffffffffffffffffffff1602179055508173ffffffffffffffffffffffffffffffffffffffff168173ffffffffffffffffffffffffffffffffffffffff167f8be0079c531659141344cd1fd0a4f28419497f9722a3daafe3b4186f6b6457e060405160405180910390a35050565b610dba82826106d5565b610dfd5780826040517fe2517d3f000000000000000000000000000000000000000000000000000000008152600401610df49291906112c3565b60405180910390fd5b5050565b600080fd5b60007fffffffff0000000000000000000000000000000000000000000000000000000082169050919050565b610e3b81610e06565b8114610e4657600080fd5b50565b600081359050610e5881610e32565b92915050565b600060208284031215610e7457610e73610e01565b5b6000610e8284828501610e49565b91505092915050565b60008115159050919050565b610ea081610e8b565b82525050565b6000602082019050610ebb6000830184610e97565b92915050565b6000819050919050565b610ed481610ec1565b8114610edf57600080fd5b50565b600081359050610ef181610ecb565b92915050565b600060208284031215610f0d57610f0c610e01565b5b6000610f1b84828501610ee2565b91505092915050565b610f2d81610ec1565b82525050565b6000602082019050610f486000830184610f24565b92915050565b600073ffffffffffffffffffffffffffffffffffffffff82169050919050565b6000610f7982610f4e565b9050919050565b610f8981610f6e565b82525050565b6000602082019050610fa46000830184610f80565b92915050565b610fb381610f6e565b8114610fbe57600080fd5b50565b600081359050610fd081610faa565b92915050565b60008060408385031215610fed57610fec610e01565b5b6000610ffb85828601610ee2565b925050602061100c85828601610fc1565b9150509250929050565b61101f81610e8b565b811461102a57600080fd5b50565b60008135905061103c81611016565b92915050565b6000806040838503121561105957611058610e01565b5b600061106785828601610fc1565b92505060206110788582860161102d565b9150509250929050565b60006020828403121561109857611097610e01565b5b60006110a684828501610fc1565b91505092915050565b600082825260208201905092915050565b7f496e76616c696420757365722061646472657373000000000000000000000000600082015250565b60006110f66014836110af565b9150611101826110c0565b602082019050919050565b60006020820190508181036000830152611125816110e9565b9050919050565b60006040820190506111416000830185610f80565b61114e6020830184610e97565b9392505050565b7f4c6f79616c7479546f6b656e0000000000000000000000000000000000000000600082015250565b600061118b600c836110af565b915061119682611155565b602082019050919050565b600060408201905081810360008301526111ba8161117e565b90506111c96020830184610f80565b92915050565b7f506f6c6c436f6e74726163740000000000000000000000000000000000000000600082015250565b6000611205600c836110af565b9150611210826111cf565b602082019050919050565b60006040820190508181036000830152611234816111f8565b90506112436020830184610f80565b92915050565b7f55736572436f6e74726163740000000000000000000000000000000000000000600082015250565b600061127f600c836110af565b915061128a82611249565b602082019050919050565b600060408201905081810360008301526112ae81611272565b90506112bd6020830184610f80565b92915050565b60006040820190506112d86000830185610f80565b6112e56020830184610f24565b939250505056fea2646970667358221220dbd84b894954e773e169e3bff889257032cba7621abc64c2815882c2779b6c4d64736f6c63430008140033",
  "linkReferences": {},
  "deployedLinkReferences": {}
}