{
  "_format": "hh-sol-artifact-1",
  "contractName": "PollContract",
  "sourceName": "contracts/PollContract.sol",
  "abi": [
    {
      "inputs": [
        {
          "internalType": "address",
          "name": "_tokenContract",
          "type": "address"
        }
      ],
      "stateMutability": "nonpayable",
      "type": "constructor"
    },
    {
      "inputs": [],
      "name": "AccessControlBadConfirmation",
      "type": "error"
    },
    {
      "inputs": [
        {
          "internalType": "address",
          "name": "account",
          "type": "address"
        },
        {
          "internalType": "bytes32",
          "name": "neededRole",
          "type": "bytes32"
        }
      ],
      "name": "AccessControlUnauthorizedAccount",
      "type": "error"
    },
    {
      "anonymous": false,
      "inputs": [
        {
          "indexed": false,
          "internalType": "uint256",
          "name": "id",
          "type": "uint256"
        }
      ],
      "name": "PollActivated",
      "type": "event"
    },
    {
      "anonymous": false,
      "inputs": [
        {
          "indexed": false,
          "internalType": "uint256",
          "name": "id",
          "type": "uint256"
        }
      ],
      "name": "PollClosed",
      "type": "event"
    },
    {
      "anonymous": false,
      "inputs": [
        {
          "indexed": false,
          "internalType": "uint256",
          "name": "id",
          "type": "uint256"
        },
        {
          "indexed": false,
          "internalType": "string",
          "name": "question",
          "type": "string"
        }
      ],
      "name": "PollCreated",
      "type": "event"
    },
    {
      "anonymous": false,
      "inputs": [
        {
          "indexed": true,
          "internalType": "bytes32",
          "name": "role",
          "type": "bytes32"
        },
        {
          "indexed": true,
          "internalType": "bytes32",
          "name": "previousAdminRole",
          "type": "bytes32"
        },
        {
          "indexed": true,
          "internalType": "bytes32",
          "name": "newAdminRole",
          "type": "bytes32"
        }
      ],
      "name": "RoleAdminChanged",
      "type": "event"
    },
    {
      "anonymous": false,
      "inputs": [
        {
          "indexed": true,
          "internalType": "bytes32",
          "name": "role",
          "type": "bytes32"
        },
        {
          "indexed": true,
          "internalType": "address",
          "name": "account",
          "type": "address"
        },
        {
          "indexed": true,
          "internalType": "address",
          "name": "sender",
          "type": "address"
        }
      ],
      "name": "RoleGranted",
      "type": "event"
    },
    {
      "anonymous": false,
      "inputs": [
        {
          "indexed": true,
          "internalType": "bytes32",
          "name": "role",
          "type": "bytes32"
        },
        {
          "indexed": true,
          "internalType": "address",
          "name": "account",
          "type": "address"
        },
        {
          "indexed": true,
          "internalType": "address",
          "name": "sender",
          "type": "address"
        }
      ],
      "name": "RoleRevoked",
      "type": "event"
    },
    {
      "anonymous": false,
      "inputs": [
        {
          "indexed": false,
          "internalType": "address",
          "name": "voter",
          "type": "address"
        },
        {
          "indexed": false,
          "internalType": "uint256",
          "name": "pollId",
          "type": "uint256"
        },
        {
          "indexed": false,
          "internalType": "uint256",
          "name": "option",
          "type": "uint256"
        }
      ],
      "name": "Voted",
      "type": "event"
    },
    {
      "inputs": [],
      "name": "DEFAULT_ADMIN_ROLE",
      "outputs": [
        {
          "internalType": "bytes32",
          "name": "",
          "type": "bytes32"
        }
      ],
      "stateMutability": "view",
      "type": "function"
    },
    {
      "inputs": [],
      "name": "POLL_MANAGER_ROLE",
      "outputs": [
        {
          "internalType": "bytes32",
          "name": "",
          "type": "bytes32"
        }
      ],
      "stateMutability": "view",
      "type": "function"
    },
    {
      "inputs": [
        {
          "internalType": "uint256",
          "name": "pollId",
          "type": "uint256"
        }
      ],
      "name": "activatePoll",
      "outputs": [],
      "stateMutability": "nonpayable",
      "type": "function"
    },
    {
      "inputs": [
        {
          "internalType": "uint256",
          "name": "pollId",
          "type": "uint256"
        }
      ],
      "name": "closePoll",
      "outputs": [],
      "stateMutability": "nonpayable",
      "type": "function"
    },
    {
      "inputs": [
        {
          "internalType": "string",
          "name": "question",
          "type": "string"
        },
        {
          "internalType": "string[]",
          "name": "options",
          "type": "string[]"
        }
      ],
      "name": "createPoll",
      "outputs": [],
      "stateMutability": "nonpayable",
      "type": "function"
    },
    {
      "inputs": [
        {
          "internalType": "bytes32",
          "name": "role",
          "type": "bytes32"
        }
      ],
      "name": "getRoleAdmin",
      "outputs": [
        {
          "internalType": "bytes32",
          "name": "",
          "type": "bytes32"
        }
      ],
      "stateMutability": "view",
      "type": "function"
    },
    {
      "inputs": [
        {
          "internalType": "bytes32",
          "name": "role",
          "type": "bytes32"
        },
        {
          "internalType": "address",
          "name": "account",
          "type": "address"
        }
      ],
      "name": "grantRole",
      "outputs": [],
      "stateMutability": "nonpayable",
      "type": "function"
    },
    {
      "inputs": [
        {
          "internalType": "bytes32",
          "name": "role",
          "type": "bytes32"
        },
        {
          "internalType": "address",
          "name": "account",
          "type": "address"
        }
      ],
      "name": "hasRole",
      "outputs": [
        {
          "internalType": "bool",
          "name": "",
          "type": "bool"
        }
      ],
      "stateMutability": "view",
      "type": "function"
    },
    {
      "inputs": [
        {
          "internalType": "uint256",
          "name": "",
          "type": "uint256"
        }
      ],
      "name": "polls",
      "outputs": [
        {
          "internalType": "uint256",
          "name": "id",
          "type": "uint256"
        },
        {
          "internalType": "string",
          "name": "question",
          "type": "string"
        },
        {
          "internalType": "bool",
          "name": "isActive",
          "type": "bool"
        }
      ],
      "stateMutability": "view",
      "type": "function"
    },
    {
      "inputs": [
        {
          "internalType": "bytes32",
          "name": "role",
          "type": "bytes32"
        },
        {
          "internalType": "address",
          "name": "callerConfirmation",
          "type": "address"
        }
      ],
      "name": "renounceRole",
      "outputs": [],
      "stateMutability": "nonpayable",
      "type": "function"
    },
    {
      "inputs": [
        {
          "internalType": "bytes32",
          "name": "role",
          "type": "bytes32"
        },
        {
          "internalType": "address",
          "name": "account",
          "type": "address"
        }
      ],
      "name": "revokeRole",
      "outputs": [],
      "stateMutability": "nonpayable",
      "type": "function"
    },
    {
      "inputs": [
        {
          "internalType": "bytes4",
          "name": "interfaceId",
          "type": "bytes4"
        }
      ],
      "name": "supportsInterface",
      "outputs": [
        {
          "internalType": "bool",
          "name": "",
          "type": "bool"
        }
      ],
      "stateMutability": "view",
      "type": "function"
    },
    {
      "inputs": [],
      "name": "tokenContract",
      "outputs": [
        {
          "internalType": "contract ITokenContract",
          "name": "",
          "type": "address"
        }
      ],
      "stateMutability": "view",
      "type": "function"
    },
    {
      "inputs": [
        {
          "internalType": "uint256",
          "name": "pollId",
          "type": "uint256"
        },
        {
          "internalType": "uint256",
          "name": "option",
          "type": "uint256"
        }
      ],
      "name": "vote",
      "outputs": [],
      "stateMutability": "nonpayable",
      "type": "function"
    }
  ],
  "bytecode": "0x60806040523480156200001157600080fd5b5060405162001e8a38038062001e8a833981810160405281019062000037919062000274565b80600260006101000a81548173ffffffffffffffffffffffffffffffffffffffff021916908373ffffffffffffffffffffffffffffffffffffffff1602179055506200008d6000801b336200009560201b60201c565b5050620002a6565b6000620000a983836200019860201b60201c565b6200018d57600160008085815260200190815260200160002060000160008473ffffffffffffffffffffffffffffffffffffffff1673ffffffffffffffffffffffffffffffffffffffff16815260200190815260200160002060006101000a81548160ff021916908315150217905550620001296200020260201b60201c565b73ffffffffffffffffffffffffffffffffffffffff168273ffffffffffffffffffffffffffffffffffffffff16847f2f8788117e7eff1d82e926ec794901d17c78024a50270940304540a733656f0d60405160405180910390a46001905062000192565b600090505b92915050565b600080600084815260200190815260200160002060000160008373ffffffffffffffffffffffffffffffffffffffff1673ffffffffffffffffffffffffffffffffffffffff16815260200190815260200160002060009054906101000a900460ff16905092915050565b600033905090565b600080fd5b600073ffffffffffffffffffffffffffffffffffffffff82169050919050565b60006200023c826200020f565b9050919050565b6200024e816200022f565b81146200025a57600080fd5b50565b6000815190506200026e8162000243565b92915050565b6000602082840312156200028d576200028c6200020a565b5b60006200029d848285016200025d565b91505092915050565b611bd480620002b66000396000f3fe608060405234801561001057600080fd5b50600436106100ea5760003560e01c80639534e6371161008c578063b384abef11610066578063b384abef1461025d578063ce3dbda114610279578063d547741f14610297578063ebb96896146102b3576100ea565b80639534e637146101f1578063a217fddf1461020d578063ac2f00741461022b576100ea565b806336568abe116100c857806336568abe1461016b57806355a373d6146101875780637e3d71c3146101a557806391d14854146101c1576100ea565b806301ffc9a7146100ef578063248a9ca31461011f5780632f2ff15d1461014f575b600080fd5b61010960048036038101906101049190610f73565b6102cf565b6040516101169190610fbb565b60405180910390f35b6101396004803603810190610134919061100c565b610349565b6040516101469190611048565b60405180910390f35b610169600480360381019061016491906110c1565b610368565b005b610185600480360381019061018091906110c1565b61038a565b005b61018f610405565b60405161019c9190611160565b60405180910390f35b6101bf60048036038101906101ba91906113a7565b61042b565b005b6101db60048036038101906101d691906110c1565b61051c565b6040516101e89190610fbb565b60405180910390f35b61020b60048036038101906102069190611455565b610586565b005b610215610670565b6040516102229190611048565b60405180910390f35b61024560048036038101906102409190611455565b610677565b60405161025493929190611510565b60405180910390f35b6102776004803603810190610272919061154e565b610746565b005b610281610a44565b60405161028e9190611048565b60405180910390f35b6102b160048036038101906102ac91906110c1565b610a68565b005b6102cd60048036038101906102c89190611455565b610a8a565b005b60007f7965db0b000000000000000000000000000000000000000000000000000000007bffffffffffffffffffffffffffffffffffffffffffffffffffffffff1916827bffffffffffffffffffffffffffffffffffffffffffffffffffffffff19161480610342575061034182610b73565b5b9050919050565b6000806000838152602001908152602001600020600101549050919050565b61037182610349565b61037a81610bdd565b6103848383610bf1565b50505050565b610392610ce2565b73ffffffffffffffffffffffffffffffffffffffff168173ffffffffffffffffffffffffffffffffffffffff16146103f6576040517f6697b23200000000000000000000000000000000000000000000000000000000815260040160405180910390fd5b6104008282610cea565b505050565b600260009054906101000a900473ffffffffffffffffffffffffffffffffffffffff1681565b7ff7d93cb9f09c9f4c8548d99cf7a35b0bcfa92f8500317727364e2b555e9fb99861045581610bdd565b60006001808160018154018082558091505003906000526020600020906006020190506001808054905061048991906115bd565b8160000181905550838160010190816104a291906117f3565b50828160020190805190602001906104bb929190610e2d565b5060008160030160006101000a81548160ff0219169083151502179055507f65d5ac2bf1bca69566bef1affdfca5bb37b9577fc0b3af4c7c4638225e67b39c81600001548560405161050e9291906118c5565b60405180910390a150505050565b600080600084815260200190815260200160002060000160008373ffffffffffffffffffffffffffffffffffffffff1673ffffffffffffffffffffffffffffffffffffffff16815260200190815260200160002060009054906101000a900460ff16905092915050565b7ff7d93cb9f09c9f4c8548d99cf7a35b0bcfa92f8500317727364e2b555e9fb9986105b081610bdd565b60018054905082106105f7576040517f08c379a00000000000000000000000000000000000000000000000000000000081526004016105ee90611941565b60405180910390fd5b60006001838154811061060d5761060c611961565b5b906000526020600020906006020160030160006101000a81548160ff0219169083151502179055507f703c67c157a1afb7d386ce5212ee88bf0a690bca998060e9595ebdfd747100ce826040516106649190611990565b60405180910390a15050565b6000801b81565b6001818154811061068757600080fd5b90600052602060002090600602016000915090508060000154908060010180546106b090611620565b80601f01602080910402602001604051908101604052809291908181526020018280546106dc90611620565b80156107295780601f106106fe57610100808354040283529160200191610729565b820191906000526020600020905b81548152906001019060200180831161070c57829003601f168201915b5050505050908060030160009054906101000a900460ff16905083565b600180549050821061078d576040517f08c379a000000000000000000000000000000000000000000000000000000000815260040161078490611941565b60405180910390fd5b600182815481106107a1576107a0611961565b5b906000526020600020906006020160030160009054906101000a900460ff166107ff576040517f08c379a00000000000000000000000000000000000000000000000000000000081526004016107f6906119f7565b60405180910390fd5b6001828154811061081357610812611961565b5b906000526020600020906006020160040160003373ffffffffffffffffffffffffffffffffffffffff1673ffffffffffffffffffffffffffffffffffffffff16815260200190815260200160002060009054906101000a900460ff16156108af576040517f08c379a00000000000000000000000000000000000000000000000000000000081526004016108a690611a63565b60405180910390fd5b600182815481106108c3576108c2611961565b5b9060005260206000209060060201600501600082815260200190815260200160002060008154809291906108f690611a83565b919050555060018083815481106109105761090f611961565b5b906000526020600020906006020160040160003373ffffffffffffffffffffffffffffffffffffffff1673ffffffffffffffffffffffffffffffffffffffff16815260200190815260200160002060006101000a81548160ff0219169083151502179055507fea66f58e474bc09f580000e81f31b334d171db387d0c6098ba47bd897741679b3383836040516109a893929190611ada565b60405180910390a1600260009054906101000a900473ffffffffffffffffffffffffffffffffffffffff1673ffffffffffffffffffffffffffffffffffffffff166340c10f193360016040518363ffffffff1660e01b8152600401610a0e929190611b4c565b600060405180830381600087803b158015610a2857600080fd5b505af1158015610a3c573d6000803e3d6000fd5b505050505050565b7ff7d93cb9f09c9f4c8548d99cf7a35b0bcfa92f8500317727364e2b555e9fb99881565b610a7182610349565b610a7a81610bdd565b610a848383610cea565b50505050565b7ff7d93cb9f09c9f4c8548d99cf7a35b0bcfa92f8500317727364e2b555e9fb998610ab481610bdd565b6001805490508210610afb576040517f08c379a0000000000000000000000000000000000000000000000000000000008152600401610af290611941565b60405180910390fd5b6001808381548110610b1057610b0f611961565b5b906000526020600020906006020160030160006101000a81548160ff0219169083151502179055507f4d863a7bb9fa1842bb9e4910f424611e539d2ba27a89dbd18d89ba8eb7a494c282604051610b679190611990565b60405180910390a15050565b60007f01ffc9a7000000000000000000000000000000000000000000000000000000007bffffffffffffffffffffffffffffffffffffffffffffffffffffffff1916827bffffffffffffffffffffffffffffffffffffffffffffffffffffffff1916149050919050565b610bee81610be9610ce2565b610ddc565b50565b6000610bfd838361051c565b610cd757600160008085815260200190815260200160002060000160008473ffffffffffffffffffffffffffffffffffffffff1673ffffffffffffffffffffffffffffffffffffffff16815260200190815260200160002060006101000a81548160ff021916908315150217905550610c74610ce2565b73ffffffffffffffffffffffffffffffffffffffff168273ffffffffffffffffffffffffffffffffffffffff16847f2f8788117e7eff1d82e926ec794901d17c78024a50270940304540a733656f0d60405160405180910390a460019050610cdc565b600090505b92915050565b600033905090565b6000610cf6838361051c565b15610dd157600080600085815260200190815260200160002060000160008473ffffffffffffffffffffffffffffffffffffffff1673ffffffffffffffffffffffffffffffffffffffff16815260200190815260200160002060006101000a81548160ff021916908315150217905550610d6e610ce2565b73ffffffffffffffffffffffffffffffffffffffff168273ffffffffffffffffffffffffffffffffffffffff16847ff6391f5c32d9c69d2a47ea670b442974b53935d1edc7fd64eb21e047a839171b60405160405180910390a460019050610dd6565b600090505b92915050565b610de6828261051c565b610e295780826040517fe2517d3f000000000000000000000000000000000000000000000000000000008152600401610e20929190611b75565b60405180910390fd5b5050565b828054828255906000526020600020908101928215610e75579160200282015b82811115610e74578251829081610e6491906117f3565b5091602001919060010190610e4d565b5b509050610e829190610e86565b5090565b5b80821115610ea65760008181610e9d9190610eaa565b50600101610e87565b5090565b508054610eb690611620565b6000825580601f10610ec85750610ee7565b601f016020900490600052602060002090810190610ee69190610eea565b5b50565b5b80821115610f03576000816000905550600101610eeb565b5090565b6000604051905090565b600080fd5b600080fd5b60007fffffffff0000000000000000000000000000000000000000000000000000000082169050919050565b610f5081610f1b565b8114610f5b57600080fd5b50565b600081359050610f6d81610f47565b92915050565b600060208284031215610f8957610f88610f11565b5b6000610f9784828501610f5e565b91505092915050565b60008115159050919050565b610fb581610fa0565b82525050565b6000602082019050610fd06000830184610fac565b92915050565b6000819050919050565b610fe981610fd6565b8114610ff457600080fd5b50565b60008135905061100681610fe0565b92915050565b60006020828403121561102257611021610f11565b5b600061103084828501610ff7565b91505092915050565b61104281610fd6565b82525050565b600060208201905061105d6000830184611039565b92915050565b600073ffffffffffffffffffffffffffffffffffffffff82169050919050565b600061108e82611063565b9050919050565b61109e81611083565b81146110a957600080fd5b50565b6000813590506110bb81611095565b92915050565b600080604083850312156110d8576110d7610f11565b5b60006110e685828601610ff7565b92505060206110f7858286016110ac565b9150509250929050565b6000819050919050565b600061112661112161111c84611063565b611101565b611063565b9050919050565b60006111388261110b565b9050919050565b600061114a8261112d565b9050919050565b61115a8161113f565b82525050565b60006020820190506111756000830184611151565b92915050565b600080fd5b600080fd5b6000601f19601f8301169050919050565b7f4e487b7100000000000000000000000000000000000000000000000000000000600052604160045260246000fd5b6111ce82611185565b810181811067ffffffffffffffff821117156111ed576111ec611196565b5b80604052505050565b6000611200610f07565b905061120c82826111c5565b919050565b600067ffffffffffffffff82111561122c5761122b611196565b5b61123582611185565b9050602081019050919050565b82818337600083830152505050565b600061126461125f84611211565b6111f6565b9050828152602081018484840111156112805761127f611180565b5b61128b848285611242565b509392505050565b600082601f8301126112a8576112a761117b565b5b81356112b8848260208601611251565b91505092915050565b600067ffffffffffffffff8211156112dc576112db611196565b5b602082029050602081019050919050565b600080fd5b6000611305611300846112c1565b6111f6565b90508083825260208201905060208402830185811115611328576113276112ed565b5b835b8181101561136f57803567ffffffffffffffff81111561134d5761134c61117b565b5b80860161135a8982611293565b8552602085019450505060208101905061132a565b5050509392505050565b600082601f83011261138e5761138d61117b565b5b813561139e8482602086016112f2565b91505092915050565b600080604083850312156113be576113bd610f11565b5b600083013567ffffffffffffffff8111156113dc576113db610f16565b5b6113e885828601611293565b925050602083013567ffffffffffffffff81111561140957611408610f16565b5b61141585828601611379565b9150509250929050565b6000819050919050565b6114328161141f565b811461143d57600080fd5b50565b60008135905061144f81611429565b92915050565b60006020828403121561146b5761146a610f11565b5b600061147984828501611440565b91505092915050565b61148b8161141f565b82525050565b600081519050919050565b600082825260208201905092915050565b60005b838110156114cb5780820151818401526020810190506114b0565b60008484015250505050565b60006114e282611491565b6114ec818561149c565b93506114fc8185602086016114ad565b61150581611185565b840191505092915050565b60006060820190506115256000830186611482565b818103602083015261153781856114d7565b90506115466040830184610fac565b949350505050565b6000806040838503121561156557611564610f11565b5b600061157385828601611440565b925050602061158485828601611440565b9150509250929050565b7f4e487b7100000000000000000000000000000000000000000000000000000000600052601160045260246000fd5b60006115c88261141f565b91506115d38361141f565b92508282039050818111156115eb576115ea61158e565b5b92915050565b7f4e487b7100000000000000000000000000000000000000000000000000000000600052602260045260246000fd5b6000600282049050600182168061163857607f821691505b60208210810361164b5761164a6115f1565b5b50919050565b60008190508160005260206000209050919050565b60006020601f8301049050919050565b600082821b905092915050565b6000600883026116b37fffffffffffffffffffffffffffffffffffffffffffffffffffffffffffffffff82611676565b6116bd8683611676565b95508019841693508086168417925050509392505050565b60006116f06116eb6116e68461141f565b611101565b61141f565b9050919050565b6000819050919050565b61170a836116d5565b61171e611716826116f7565b848454611683565b825550505050565b600090565b611733611726565b61173e818484611701565b505050565b5b818110156117625761175760008261172b565b600181019050611744565b5050565b601f8211156117a75761177881611651565b61178184611666565b81016020851015611790578190505b6117a461179c85611666565b830182611743565b50505b505050565b600082821c905092915050565b60006117ca600019846008026117ac565b1980831691505092915050565b60006117e383836117b9565b9150826002028217905092915050565b6117fc82611491565b67ffffffffffffffff81111561181557611814611196565b5b61181f8254611620565b61182a828285611766565b600060209050601f83116001811461185d576000841561184b578287015190505b61185585826117d7565b8655506118bd565b601f19841661186b86611651565b60005b828110156118935784890151825560018201915060208501945060208101905061186e565b868310156118b057848901516118ac601f8916826117b9565b8355505b6001600288020188555050505b505050505050565b60006040820190506118da6000830185611482565b81810360208301526118ec81846114d7565b90509392505050565b7f506f6c6c20646f6573206e6f742065786973742e000000000000000000000000600082015250565b600061192b60148361149c565b9150611936826118f5565b602082019050919050565b6000602082019050818103600083015261195a8161191e565b9050919050565b7f4e487b7100000000000000000000000000000000000000000000000000000000600052603260045260246000fd5b60006020820190506119a56000830184611482565b92915050565b7f506f6c6c206973206e6f74206163746976652e00000000000000000000000000600082015250565b60006119e160138361149c565b91506119ec826119ab565b602082019050919050565b60006020820190508181036000830152611a10816119d4565b9050919050565b7f416c726561647920766f7465642e000000000000000000000000000000000000600082015250565b6000611a4d600e8361149c565b9150611a5882611a17565b602082019050919050565b60006020820190508181036000830152611a7c81611a40565b9050919050565b6000611a8e8261141f565b91507fffffffffffffffffffffffffffffffffffffffffffffffffffffffffffffffff8203611ac057611abf61158e565b5b600182019050919050565b611ad481611083565b82525050565b6000606082019050611aef6000830186611acb565b611afc6020830185611482565b611b096040830184611482565b949350505050565b6000819050919050565b6000611b36611b31611b2c84611b11565b611101565b61141f565b9050919050565b611b4681611b1b565b82525050565b6000604082019050611b616000830185611acb565b611b6e6020830184611b3d565b9392505050565b6000604082019050611b8a6000830185611acb565b611b976020830184611039565b939250505056fea264697066735822122044cfdcb164108dae69c7ce954a9c1f8430474911b2dc003298bf040d89376e7164736f6c63430008140033",
  "linkReferences": {},
  "deployedLinkReferences": {}
}