{
  "_format": "hh-sol-artifact-1",
  "contractName": "UserContract",
  "sourceName": "contracts/UserContract.sol",
  "abi": [
    {
      "inputs": [
        {
          "internalType": "address",
          "name": "_loyaltyToken",
          "type": "address"
        }
      ],
      "stateMutability": "nonpayable",
      "type": "constructor"
    },
    {
      "inputs": [],
      "name": "AccessControlBadConfirmation",
      "type": "error"
    },
    {
      "inputs": [
        {
          "internalType": "address",
          "name": "account",
          "type": "address"
        },
        {
          "internalType": "bytes32",
          "name": "neededRole",
          "type": "bytes32"
        }
      ],
      "name": "AccessControlUnauthorizedAccount",
      "type": "error"
    },
    {
      "anonymous": false,
      "inputs": [
        {
          "indexed": true,
          "internalType": "bytes32",
          "name": "role",
          "type": "bytes32"
        },
        {
          "indexed": true,
          "internalType": "bytes32",
          "name": "previousAdminRole",
          "type": "bytes32"
        },
        {
          "indexed": true,
          "internalType": "bytes32",
          "name": "newAdminRole",
          "type": "bytes32"
        }
      ],
      "name": "RoleAdminChanged",
      "type": "event"
    },
    {
      "anonymous": false,
      "inputs": [
        {
          "indexed": true,
          "internalType": "bytes32",
          "name": "role",
          "type": "bytes32"
        },
        {
          "indexed": true,
          "internalType": "address",
          "name": "account",
          "type": "address"
        },
        {
          "indexed": true,
          "internalType": "address",
          "name": "sender",
          "type": "address"
        }
      ],
      "name": "RoleGranted",
      "type": "event"
    },
    {
      "anonymous": false,
      "inputs": [
        {
          "indexed": true,
          "internalType": "bytes32",
          "name": "role",
          "type": "bytes32"
        },
        {
          "indexed": true,
          "internalType": "address",
          "name": "account",
          "type": "address"
        },
        {
          "indexed": true,
          "internalType": "address",
          "name": "sender",
          "type": "address"
        }
      ],
      "name": "RoleRevoked",
      "type": "event"
    },
    {
      "anonymous": false,
      "inputs": [
        {
          "indexed": true,
          "internalType": "address",
          "name": "user",
          "type": "address"
        },
        {
          "indexed": false,
          "internalType": "uint256",
          "name": "amount",
          "type": "uint256"
        }
      ],
      "name": "TokensDeposited",
      "type": "event"
    },
    {
      "anonymous": false,
      "inputs": [
        {
          "indexed": true,
          "internalType": "address",
          "name": "user",
          "type": "address"
        },
        {
          "indexed": false,
          "internalType": "uint256",
          "name": "tokens",
          "type": "uint256"
        },
        {
          "indexed": false,
          "internalType": "uint256",
          "name": "credit",
          "type": "uint256"
        }
      ],
      "name": "TokensRedeemed",
      "type": "event"
    },
    {
      "anonymous": false,
      "inputs": [
        {
          "indexed": true,
          "internalType": "address",
          "name": "user",
          "type": "address"
        },
        {
          "indexed": false,
          "internalType": "uint256",
          "name": "uid",
          "type": "uint256"
        }
      ],
      "name": "UserRegistered",
      "type": "event"
    },
    {
      "anonymous": false,
      "inputs": [
        {
          "indexed": true,
          "internalType": "address",
          "name": "user",
          "type": "address"
        },
        {
          "indexed": false,
          "internalType": "uint256",
          "name": "pollId",
          "type": "uint256"
        },
        {
          "indexed": false,
          "internalType": "string",
          "name": "vote",
          "type": "string"
        }
      ],
      "name": "VoteRecorded",
      "type": "event"
    },
    {
      "inputs": [],
      "name": "DEFAULT_ADMIN_ROLE",
      "outputs": [
        {
          "internalType": "bytes32",
          "name": "",
          "type": "bytes32"
        }
      ],
      "stateMutability": "view",
      "type": "function"
    },
    {
      "inputs": [],
      "name": "USER_MANAGER_ROLE",
      "outputs": [
        {
          "internalType": "bytes32",
          "name": "",
          "type": "bytes32"
        }
      ],
      "stateMutability": "view",
      "type": "function"
    },
    {
      "inputs": [
        {
          "internalType": "address",
          "name": "userAddress",
          "type": "address"
        },
        {
          "internalType": "uint256",
          "name": "amount",
          "type": "uint256"
        }
      ],
      "name": "depositTokens",
      "outputs": [],
      "stateMutability": "nonpayable",
      "type": "function"
    },
    {
      "inputs": [
        {
          "internalType": "bytes32",
          "name": "role",
          "type": "bytes32"
        }
      ],
      "name": "getRoleAdmin",
      "outputs": [
        {
          "internalType": "bytes32",
          "name": "",
          "type": "bytes32"
        }
      ],
      "stateMutability": "view",
      "type": "function"
    },
    {
      "inputs": [
        {
          "internalType": "address",
          "name": "userAddress",
          "type": "address"
        }
      ],
      "name": "getStoreCredit",
      "outputs": [
        {
          "internalType": "uint256",
          "name": "",
          "type": "uint256"
        }
      ],
      "stateMutability": "view",
      "type": "function"
    },
    {
      "inputs": [
        {
          "internalType": "address",
          "name": "userAddress",
          "type": "address"
        }
      ],
      "name": "getTokenBalance",
      "outputs": [
        {
          "internalType": "uint256",
          "name": "",
          "type": "uint256"
        }
      ],
      "stateMutability": "view",
      "type": "function"
    },
    {
      "inputs": [
        {
          "internalType": "address",
          "name": "userAddress",
          "type": "address"
        }
      ],
      "name": "getVotingRecords",
      "outputs": [
        {
          "internalType": "string[]",
          "name": "",
          "type": "string[]"
        }
      ],
      "stateMutability": "view",
      "type": "function"
    },
    {
      "inputs": [
        {
          "internalType": "bytes32",
          "name": "role",
          "type": "bytes32"
        },
        {
          "internalType": "address",
          "name": "account",
          "type": "address"
        }
      ],
      "name": "grantRole",
      "outputs": [],
      "stateMutability": "nonpayable",
      "type": "function"
    },
    {
      "inputs": [
        {
          "internalType": "bytes32",
          "name": "role",
          "type": "bytes32"
        },
        {
          "internalType": "address",
          "name": "account",
          "type": "address"
        }
      ],
      "name": "hasRole",
      "outputs": [
        {
          "internalType": "bool",
          "name": "",
          "type": "bool"
        }
      ],
      "stateMutability": "view",
      "type": "function"
    },
    {
      "inputs": [],
      "name": "loyaltyToken",
      "outputs": [
        {
          "internalType": "address",
          "name": "",
          "type": "address"
        }
      ],
      "stateMutability": "view",
      "type": "function"
    },
    {
      "inputs": [
        {
          "internalType": "address",
          "name": "userAddress",
          "type": "address"
        },
        {
          "internalType": "uint256",
          "name": "pollId",
          "type": "uint256"
        },
        {
          "internalType": "string",
          "name": "vote",
          "type": "string"
        }
      ],
      "name": "recordVote",
      "outputs": [],
      "stateMutability": "nonpayable",
      "type": "function"
    },
    {
      "inputs": [
        {
          "internalType": "address",
          "name": "userAddress",
          "type": "address"
        },
        {
          "internalType": "uint256",
          "name": "tokenAmount",
          "type": "uint256"
        }
      ],
      "name": "redeemTokensForCredit",
      "outputs": [],
      "stateMutability": "nonpayable",
      "type": "function"
    },
    {
      "inputs": [
        {
          "internalType": "address",
          "name": "userAddress",
          "type": "address"
        }
      ],
      "name": "registerUser",
      "outputs": [],
      "stateMutability": "nonpayable",
      "type": "function"
    },
    {
      "inputs": [
        {
          "internalType": "bytes32",
          "name": "role",
          "type": "bytes32"
        },
        {
          "internalType": "address",
          "name": "callerConfirmation",
          "type": "address"
        }
      ],
      "name": "renounceRole",
      "outputs": [],
      "stateMutability": "nonpayable",
      "type": "function"
    },
    {
      "inputs": [
        {
          "internalType": "bytes32",
          "name": "role",
          "type": "bytes32"
        },
        {
          "internalType": "address",
          "name": "account",
          "type": "address"
        }
      ],
      "name": "revokeRole",
      "outputs": [],
      "stateMutability": "nonpayable",
      "type": "function"
    },
    {
      "inputs": [
        {
          "internalType": "bytes4",
          "name": "interfaceId",
          "type": "bytes4"
        }
      ],
      "name": "supportsInterface",
      "outputs": [
        {
          "internalType": "bool",
          "name": "",
          "type": "bool"
        }
      ],
      "stateMutability": "view",
      "type": "function"
    },
    {
      "inputs": [
        {
          "internalType": "address",
          "name": "userAddress",
          "type": "address"
        },
        {
          "internalType": "uint256",
          "name": "uid",
          "type": "uint256"
        }
      ],
      "name": "testSetupUser",
      "outputs": [],
      "stateMutability": "nonpayable",
      "type": "function"
    },
    {
      "inputs": [
        {
          "internalType": "address",
          "name": "",
          "type": "address"
        }
      ],
      "name": "userProfiles",
      "outputs": [
        {
          "internalType": "uint256",
          "name": "uid",
          "type": "uint256"
        },
        {
          "internalType": "bytes32",
          "name": "hashedUid",
          "type": "bytes32"
        },
        {
          "internalType": "uint256",
          "name": "tokenBalance",
          "type": "uint256"
        },
        {
          "internalType": "uint256",
          "name": "storeCredit",
          "type": "uint256"
        }
      ],
      "stateMutability": "view",
      "type": "function"
    }
  ],
  "bytecode": "0x608060405260016003553480156200001657600080fd5b50604051620025233803806200252383398181016040528101906200003c919062000279565b80600260006101000a81548173ffffffffffffffffffffffffffffffffffffffff021916908373ffffffffffffffffffffffffffffffffffffffff160217905550620000926000801b336200009a60201b60201c565b5050620002ab565b6000620000ae83836200019d60201b60201c565b6200019257600160008085815260200190815260200160002060000160008473ffffffffffffffffffffffffffffffffffffffff1673ffffffffffffffffffffffffffffffffffffffff16815260200190815260200160002060006101000a81548160ff0219169083151502179055506200012e6200020760201b60201c565b73ffffffffffffffffffffffffffffffffffffffff168273ffffffffffffffffffffffffffffffffffffffff16847f2f8788117e7eff1d82e926ec794901d17c78024a50270940304540a733656f0d60405160405180910390a46001905062000197565b600090505b92915050565b600080600084815260200190815260200160002060000160008373ffffffffffffffffffffffffffffffffffffffff1673ffffffffffffffffffffffffffffffffffffffff16815260200190815260200160002060009054906101000a900460ff16905092915050565b600033905090565b600080fd5b600073ffffffffffffffffffffffffffffffffffffffff82169050919050565b6000620002418262000214565b9050919050565b620002538162000234565b81146200025f57600080fd5b50565b600081519050620002738162000248565b92915050565b6000602082840312156200029257620002916200020f565b5b6000620002a28482850162000262565b91505092915050565b61226880620002bb6000396000f3fe608060405234801561001057600080fd5b50600436106101165760003560e01c806349af2ecd116100a257806391d148541161007157806391d14854146103045780639954f08f14610334578063a217fddf14610350578063a41e35c31461036e578063d547741f1461038c57610116565b806349af2ecd1461029257806366168bd7146102ae578063770aa84d146102ca5780637d7d54a6146102e857610116565b8063332d56d7116100e9578063332d56d7146101b357806336568abe146101e65780633aecd0e3146102025780633cce39ef14610232578063482345ec1461026257610116565b806301ffc9a71461011b5780632199d5cd1461014b578063248a9ca3146101675780632f2ff15d14610197575b600080fd5b61013560048036038101906101309190611419565b6103a8565b6040516101429190611461565b60405180910390f35b610165600480360381019061016091906114da565b610422565b005b610181600480360381019061017c919061153d565b6106b9565b60405161018e9190611579565b60405180910390f35b6101b160048036038101906101ac9190611594565b6106d8565b005b6101cd60048036038101906101c891906114da565b6106fa565b6040516101dd94939291906115ed565b60405180910390f35b61020060048036038101906101fb9190611594565b61072a565b005b61021c600480360381019061021791906114da565b6107a5565b6040516102299190611632565b60405180910390f35b61024c600480360381019061024791906114da565b6107f1565b6040516102599190611632565b60405180910390f35b61027c600480360381019061027791906114da565b61083d565b604051610289919061179f565b60405180910390f35b6102ac60048036038101906102a791906117ed565b610958565b005b6102c860048036038101906102c391906117ed565b610a02565b005b6102d2610bb9565b6040516102df919061183c565b60405180910390f35b61030260048036038101906102fd91906117ed565b610bdf565b005b61031e60048036038101906103199190611594565b610d78565b60405161032b9190611461565b60405180910390f35b61034e6004803603810190610349919061198c565b610de2565b005b610358610fe3565b6040516103659190611579565b60405180910390f35b610376610fea565b6040516103839190611579565b60405180910390f35b6103a660048036038101906103a19190611594565b61100e565b005b60007f7965db0b000000000000000000000000000000000000000000000000000000007bffffffffffffffffffffffffffffffffffffffffffffffffffffffff1916827bffffffffffffffffffffffffffffffffffffffffffffffffffffffff1916148061041b575061041a82611030565b5b9050919050565b7fcbaaf41b181bb6e269c490e876a7c97711b57e21dd8e5528423cf57579726b3561044c8161109a565b6000600160008473ffffffffffffffffffffffffffffffffffffffff1673ffffffffffffffffffffffffffffffffffffffff16815260200190815260200160002060000154146104d1576040517f08c379a00000000000000000000000000000000000000000000000000000000081526004016104c890611a58565b60405180910390fd5b600360008154809291906104e490611aa7565b91905055600160008473ffffffffffffffffffffffffffffffffffffffff1673ffffffffffffffffffffffffffffffffffffffff168152602001908152602001600020600001819055506002600160008473ffffffffffffffffffffffffffffffffffffffff1673ffffffffffffffffffffffffffffffffffffffff168152602001908152602001600020600001546040516020016105839190611b10565b60405160208183030381529060405260405161059f9190611b72565b602060405180830381855afa1580156105bc573d6000803e3d6000fd5b5050506040513d601f19601f820116820180604052508101906105df9190611b9e565b600160008473ffffffffffffffffffffffffffffffffffffffff1673ffffffffffffffffffffffffffffffffffffffff168152602001908152602001600020600101819055508173ffffffffffffffffffffffffffffffffffffffff167fe29d35093005f4d575e1003753426b57a7f64378ba73332eef9c6ccc2b8decd6600160008573ffffffffffffffffffffffffffffffffffffffff1673ffffffffffffffffffffffffffffffffffffffff168152602001908152602001600020600001546040516106ad9190611632565b60405180910390a25050565b6000806000838152602001908152602001600020600101549050919050565b6106e1826106b9565b6106ea8161109a565b6106f483836110ae565b50505050565b60016020528060005260406000206000915090508060000154908060010154908060020154908060030154905084565b61073261119f565b73ffffffffffffffffffffffffffffffffffffffff168173ffffffffffffffffffffffffffffffffffffffff1614610796576040517f6697b23200000000000000000000000000000000000000000000000000000000815260040160405180910390fd5b6107a082826111a7565b505050565b6000600160008373ffffffffffffffffffffffffffffffffffffffff1673ffffffffffffffffffffffffffffffffffffffff168152602001908152602001600020600201549050919050565b6000600160008373ffffffffffffffffffffffffffffffffffffffff1673ffffffffffffffffffffffffffffffffffffffff168152602001908152602001600020600301549050919050565b6060600160008373ffffffffffffffffffffffffffffffffffffffff1673ffffffffffffffffffffffffffffffffffffffff168152602001908152602001600020600501805480602002602001604051908101604052809291908181526020016000905b8282101561094d5783829060005260206000200180546108c090611bfa565b80601f01602080910402602001604051908101604052809291908181526020018280546108ec90611bfa565b80156109395780601f1061090e57610100808354040283529160200191610939565b820191906000526020600020905b81548152906001019060200180831161091c57829003601f168201915b5050505050815260200190600101906108a1565b505050509050919050565b610539461461099c576040517f08c379a000000000000000000000000000000000000000000000000000000000815260040161099390611c9d565b60405180910390fd5b6000600160008473ffffffffffffffffffffffffffffffffffffffff1673ffffffffffffffffffffffffffffffffffffffff16815260200190815260200160002090508181600001819055506103e8816002018190555060648160030181905550505050565b7fcbaaf41b181bb6e269c490e876a7c97711b57e21dd8e5528423cf57579726b35610a2c8161109a565b600260009054906101000a900473ffffffffffffffffffffffffffffffffffffffff1673ffffffffffffffffffffffffffffffffffffffff166323b872dd3330856040518463ffffffff1660e01b8152600401610a8b93929190611cbd565b6020604051808303816000875af1158015610aaa573d6000803e3d6000fd5b505050506040513d601f19601f82011682018060405250810190610ace9190611d20565b610b0d576040517f08c379a0000000000000000000000000000000000000000000000000000000008152600401610b0490611d99565b60405180910390fd5b81600160008573ffffffffffffffffffffffffffffffffffffffff1673ffffffffffffffffffffffffffffffffffffffff1681526020019081526020016000206002016000828254610b5f9190611db9565b925050819055508273ffffffffffffffffffffffffffffffffffffffff167f59062170a285eb80e8c6b8ced60428442a51910635005233fc4ce084a475845e83604051610bac9190611632565b60405180910390a2505050565b600260009054906101000a900473ffffffffffffffffffffffffffffffffffffffff1681565b80600160008473ffffffffffffffffffffffffffffffffffffffff1673ffffffffffffffffffffffffffffffffffffffff168152602001908152602001600020600201541015610c64576040517f08c379a0000000000000000000000000000000000000000000000000000000008152600401610c5b90611e39565b60405180910390fd5b6000610c6f82611299565b905081600160008573ffffffffffffffffffffffffffffffffffffffff1673ffffffffffffffffffffffffffffffffffffffff1681526020019081526020016000206002016000828254610cc39190611e59565b9250508190555080600160008573ffffffffffffffffffffffffffffffffffffffff1673ffffffffffffffffffffffffffffffffffffffff1681526020019081526020016000206003016000828254610d1c9190611db9565b925050819055508273ffffffffffffffffffffffffffffffffffffffff167fd171fb179b26c49e23fe46eddd44d3048a1ad277b62144ac0725fbcf1dbf6d528383604051610d6b929190611e8d565b60405180910390a2505050565b600080600084815260200190815260200160002060000160008373ffffffffffffffffffffffffffffffffffffffff1673ffffffffffffffffffffffffffffffffffffffff16815260200190815260200160002060009054906101000a900460ff16905092915050565b7fcbaaf41b181bb6e269c490e876a7c97711b57e21dd8e5528423cf57579726b35610e0c8161109a565b600160008573ffffffffffffffffffffffffffffffffffffffff1673ffffffffffffffffffffffffffffffffffffffff168152602001908152602001600020600401600084815260200190815260200160002060009054906101000a900460ff1615610ead576040517f08c379a0000000000000000000000000000000000000000000000000000000008152600401610ea490611f02565b60405180910390fd5b60018060008673ffffffffffffffffffffffffffffffffffffffff1673ffffffffffffffffffffffffffffffffffffffff168152602001908152602001600020600401600085815260200190815260200160002060006101000a81548160ff021916908315150217905550600160008573ffffffffffffffffffffffffffffffffffffffff1673ffffffffffffffffffffffffffffffffffffffff16815260200190815260200160002060050182908060018154018082558091505060019003906000526020600020016000909190919091509081610f8c91906120ce565b508373ffffffffffffffffffffffffffffffffffffffff167f9af0bf64f58ad549684bbc0e748335c374870bb2ba6cd17cbb17e88fdd9d27a68484604051610fd59291906121d9565b60405180910390a250505050565b6000801b81565b7fcbaaf41b181bb6e269c490e876a7c97711b57e21dd8e5528423cf57579726b3581565b611017826106b9565b6110208161109a565b61102a83836111a7565b50505050565b60007f01ffc9a7000000000000000000000000000000000000000000000000000000007bffffffffffffffffffffffffffffffffffffffffffffffffffffffff1916827bffffffffffffffffffffffffffffffffffffffffffffffffffffffff1916149050919050565b6110ab816110a661119f565b61135c565b50565b60006110ba8383610d78565b61119457600160008085815260200190815260200160002060000160008473ffffffffffffffffffffffffffffffffffffffff1673ffffffffffffffffffffffffffffffffffffffff16815260200190815260200160002060006101000a81548160ff02191690831515021790555061113161119f565b73ffffffffffffffffffffffffffffffffffffffff168273ffffffffffffffffffffffffffffffffffffffff16847f2f8788117e7eff1d82e926ec794901d17c78024a50270940304540a733656f0d60405160405180910390a460019050611199565b600090505b92915050565b600033905090565b60006111b38383610d78565b1561128e57600080600085815260200190815260200160002060000160008473ffffffffffffffffffffffffffffffffffffffff1673ffffffffffffffffffffffffffffffffffffffff16815260200190815260200160002060006101000a81548160ff02191690831515021790555061122b61119f565b73ffffffffffffffffffffffffffffffffffffffff168273ffffffffffffffffffffffffffffffffffffffff16847ff6391f5c32d9c69d2a47ea670b442974b53935d1edc7fd64eb21e047a839171b60405160405180910390a460019050611293565b600090505b92915050565b60005b600a821061135757606482106112d057610fa0816112ba9190611db9565b90506064826112c99190611e59565b9150611352565b603282106112fc576105dc816112e69190611db9565b90506032826112f59190611e59565b9150611351565b60148210611328576101f4816113129190611db9565b90506014826113219190611e59565b9150611350565b600a821061134f5760c88161133d9190611db9565b9050600a8261134c9190611e59565b91505b5b5b5b61129c565b919050565b6113668282610d78565b6113a95780826040517fe2517d3f0000000000000000000000000000000000000000000000000000000081526004016113a0929190612209565b60405180910390fd5b5050565b6000604051905090565b600080fd5b600080fd5b60007fffffffff0000000000000000000000000000000000000000000000000000000082169050919050565b6113f6816113c1565b811461140157600080fd5b50565b600081359050611413816113ed565b92915050565b60006020828403121561142f5761142e6113b7565b5b600061143d84828501611404565b91505092915050565b60008115159050919050565b61145b81611446565b82525050565b60006020820190506114766000830184611452565b92915050565b600073ffffffffffffffffffffffffffffffffffffffff82169050919050565b60006114a78261147c565b9050919050565b6114b78161149c565b81146114c257600080fd5b50565b6000813590506114d4816114ae565b92915050565b6000602082840312156114f0576114ef6113b7565b5b60006114fe848285016114c5565b91505092915050565b6000819050919050565b61151a81611507565b811461152557600080fd5b50565b60008135905061153781611511565b92915050565b600060208284031215611553576115526113b7565b5b600061156184828501611528565b91505092915050565b61157381611507565b82525050565b600060208201905061158e600083018461156a565b92915050565b600080604083850312156115ab576115aa6113b7565b5b60006115b985828601611528565b92505060206115ca858286016114c5565b9150509250929050565b6000819050919050565b6115e7816115d4565b82525050565b600060808201905061160260008301876115de565b61160f602083018661156a565b61161c60408301856115de565b61162960608301846115de565b95945050505050565b600060208201905061164760008301846115de565b92915050565b600081519050919050565b600082825260208201905092915050565b6000819050602082019050919050565b600081519050919050565b600082825260208201905092915050565b60005b838110156116b3578082015181840152602081019050611698565b60008484015250505050565b6000601f19601f8301169050919050565b60006116db82611679565b6116e58185611684565b93506116f5818560208601611695565b6116fe816116bf565b840191505092915050565b600061171583836116d0565b905092915050565b6000602082019050919050565b60006117358261164d565b61173f8185611658565b93508360208202850161175185611669565b8060005b8581101561178d578484038952815161176e8582611709565b94506117798361171d565b925060208a01995050600181019050611755565b50829750879550505050505092915050565b600060208201905081810360008301526117b9818461172a565b905092915050565b6117ca816115d4565b81146117d557600080fd5b50565b6000813590506117e7816117c1565b92915050565b60008060408385031215611804576118036113b7565b5b6000611812858286016114c5565b9250506020611823858286016117d8565b9150509250929050565b6118368161149c565b82525050565b6000602082019050611851600083018461182d565b92915050565b600080fd5b600080fd5b7f4e487b7100000000000000000000000000000000000000000000000000000000600052604160045260246000fd5b611899826116bf565b810181811067ffffffffffffffff821117156118b8576118b7611861565b5b80604052505050565b60006118cb6113ad565b90506118d78282611890565b919050565b600067ffffffffffffffff8211156118f7576118f6611861565b5b611900826116bf565b9050602081019050919050565b82818337600083830152505050565b600061192f61192a846118dc565b6118c1565b90508281526020810184848401111561194b5761194a61185c565b5b61195684828561190d565b509392505050565b600082601f83011261197357611972611857565b5b813561198384826020860161191c565b91505092915050565b6000806000606084860312156119a5576119a46113b7565b5b60006119b3868287016114c5565b93505060206119c4868287016117d8565b925050604084013567ffffffffffffffff8111156119e5576119e46113bc565b5b6119f18682870161195e565b9150509250925092565b600082825260208201905092915050565b7f5573657220616c72656164792072656769737465726564000000000000000000600082015250565b6000611a426017836119fb565b9150611a4d82611a0c565b602082019050919050565b60006020820190508181036000830152611a7181611a35565b9050919050565b7f4e487b7100000000000000000000000000000000000000000000000000000000600052601160045260246000fd5b6000611ab2826115d4565b91507fffffffffffffffffffffffffffffffffffffffffffffffffffffffffffffffff8203611ae457611ae3611a78565b5b600182019050919050565b6000819050919050565b611b0a611b05826115d4565b611aef565b82525050565b6000611b1c8284611af9565b60208201915081905092915050565b600081519050919050565b600081905092915050565b6000611b4c82611b2b565b611b568185611b36565b9350611b66818560208601611695565b80840191505092915050565b6000611b7e8284611b41565b915081905092915050565b600081519050611b9881611511565b92915050565b600060208284031215611bb457611bb36113b7565b5b6000611bc284828501611b89565b91505092915050565b7f4e487b7100000000000000000000000000000000000000000000000000000000600052602260045260246000fd5b60006002820490506001821680611c1257607f821691505b602082108103611c2557611c24611bcb565b5b50919050565b7f4e6f7420616c6c6f7765642065786365707420696e207465737420656e76697260008201527f6f6e6d656e740000000000000000000000000000000000000000000000000000602082015250565b6000611c876026836119fb565b9150611c9282611c2b565b604082019050919050565b60006020820190508181036000830152611cb681611c7a565b9050919050565b6000606082019050611cd2600083018661182d565b611cdf602083018561182d565b611cec60408301846115de565b949350505050565b611cfd81611446565b8114611d0857600080fd5b50565b600081519050611d1a81611cf4565b92915050565b600060208284031215611d3657611d356113b7565b5b6000611d4484828501611d0b565b91505092915050565b7f546f6b656e207472616e73666572206661696c65640000000000000000000000600082015250565b6000611d836015836119fb565b9150611d8e82611d4d565b602082019050919050565b60006020820190508181036000830152611db281611d76565b9050919050565b6000611dc4826115d4565b9150611dcf836115d4565b9250828201905080821115611de757611de6611a78565b5b92915050565b7f496e73756666696369656e7420746f6b656e7300000000000000000000000000600082015250565b6000611e236013836119fb565b9150611e2e82611ded565b602082019050919050565b60006020820190508181036000830152611e5281611e16565b9050919050565b6000611e64826115d4565b9150611e6f836115d4565b9250828203905081811115611e8757611e86611a78565b5b92915050565b6000604082019050611ea260008301856115de565b611eaf60208301846115de565b9392505050565b7f5573657220616c726561647920766f74656420696e207468697320706f6c6c00600082015250565b6000611eec601f836119fb565b9150611ef782611eb6565b602082019050919050565b60006020820190508181036000830152611f1b81611edf565b9050919050565b60008190508160005260206000209050919050565b60006020601f8301049050919050565b600082821b905092915050565b600060088302611f847fffffffffffffffffffffffffffffffffffffffffffffffffffffffffffffffff82611f47565b611f8e8683611f47565b95508019841693508086168417925050509392505050565b6000819050919050565b6000611fcb611fc6611fc1846115d4565b611fa6565b6115d4565b9050919050565b6000819050919050565b611fe583611fb0565b611ff9611ff182611fd2565b848454611f54565b825550505050565b600090565b61200e612001565b612019818484611fdc565b505050565b5b8181101561203d57612032600082612006565b60018101905061201f565b5050565b601f8211156120825761205381611f22565b61205c84611f37565b8101602085101561206b578190505b61207f61207785611f37565b83018261201e565b50505b505050565b600082821c905092915050565b60006120a560001984600802612087565b1980831691505092915050565b60006120be8383612094565b9150826002028217905092915050565b6120d782611679565b67ffffffffffffffff8111156120f0576120ef611861565b5b6120fa8254611bfa565b612105828285612041565b600060209050601f8311600181146121385760008415612126578287015190505b61213085826120b2565b865550612198565b601f19841661214686611f22565b60005b8281101561216e57848901518255600182019150602085019450602081019050612149565b8683101561218b5784890151612187601f891682612094565b8355505b6001600288020188555050505b505050505050565b60006121ab82611679565b6121b581856119fb565b93506121c5818560208601611695565b6121ce816116bf565b840191505092915050565b60006040820190506121ee60008301856115de565b818103602083015261220081846121a0565b90509392505050565b600060408201905061221e600083018561182d565b61222b602083018461156a565b939250505056fea26469706673582212207c4e3e429d0f166b38d9edd18673759635aec4401c3eaa82764e37ae488698bd64736f6c63430008140033",
  "linkReferences": {},
  "deployedLinkReferences": {}
}